:020000040800F2
:10000000D82A0020B9020008D1930008958400087E
:10001000CD9300083906000879F7000800000000B9
:10002000000000000000000000000000BDA100086A
:10003000790B000800000000599C000869A700081F
:10004000D3020008D3020008D3020008D30200083C
:10005000D3020008D3020008D3020008D30200082C
:10006000D3020008D3020008D3020008D30200081C
:10007000A90A0008B90A0008D3020008D302000840
:10008000D3020008D3020008D1040008D3020008FC
:1000900035F60008D3020008D3020008D302000896
:1000A000D3020008D3020008D3020008D3020008DC
:1000B00005A80008D3020008D3020008D3020008F4
:1000C000D3020008D3020008D3020008799E00087A
:1000D000D3020008D3020008D3020008D3020008AC
:1000E000D3020008D3020008D3020008D30200089C
:1000F000D3020008D3020008D3020008D30200088C
:10010000D3020008D3020008D3020008D30200087B
:10011000D3020008D3020008D3020008D30200086B
:10012000D3020008D3020008D3020008D30200085B
:10013000D3020008D3020008D3020008D30200084B
:10014000D3020008D3020008D3020008D30200083B
:10015000D3020008D3020008D3020008D30200082B
:10016000D3020008D3020008D3020008D30200081B
:10017000D3020008D3020008D3020008D30200080B
:10018000D3020008D3020008D3020008D3020008FB
:10019000D302000800000000D3020008D3020008C8
:1001A000D3020008D3020008D3020008D3020008DB
:1001B000D3020008D3020008D3020008D3020008CB
:1001C000D3020008D3020008D3020008D3020008BB
:1001D000D3020008D302000800F002F800F05CF837
:1001E0000AA090E8000C82448344AAF10107DA4592
:1001F00001D100F051F8AFF2090EBAE80F0013F088
:10020000010F18BFFB1A43F001031847D00F01007C
:10021000F00F01000A444FF0000C10F8013B13F0FE
:10022000070408BF10F8014B1D1108BF10F8015B4F
:10023000641E05D010F8016B641E01F8016BF9D142
:1002400013F0080F1EBF10F8014BAD1C0C1B09D199
:100250006D1E58BF01F801CBFAD505E014F8016B0B
:1002600001F8016B6D1EF9D59142D6D3704700009D
:100270000023002400250026103A28BF78C1FBD8AF
:10028000520728BF30C148BF0B6070471FB510F040
:1002900096FE1FBD10B510BD00F0E4F81146FFF743
:1002A000F5FF0FF0C9FC00F002F903B4FFF7F2FF0D
:1002B00003BC00F005F900000948804709480047E1
:1002C000FEE7FEE7FEE7FEE7FEE7FEE7FEE7FEE706
:1002D000FEE7FEE704480549054A064B7047000063
:1002E000F1A70008D9010008D8240020D82A00204E
:1002F000D8260020D826002053EA020C00F069809E
:100300002DE9F04B4FF00006002B1FBFB3FA83F529
:1003100003FA05F424FA05F65E4012BF1643B2FA5A
:1003200082F502FA05F4C5F120051EBF22FA05FC8C
:1003300044EA0C04203556EA044C4FEA144418BF32
:10034000641C4FF000084FF00009904271EB030C61
:1003500039D3002919BFB1FA81F701FA07F6B0FACB
:1003600080F700FA07F6C7F120071EBF20FA07FC46
:1003700046EA0C062037B6FBF4FCA7EB0507103F56
:1003800007F01F0BCBF120062CFA06F60CFA0BFB3C
:1003900044BFB3460026202FA4BF5E464FF0000B9B
:1003A0005BEA060C08BF4FF0010B19EB0B0948EB99
:1003B0000608ABFB027C06FB02CC0BFB03CCC01B8C
:1003C00071EB0C01C1E70B46024641464846BDE8C9
:1003D000F08B13B5084318BF4FF0FF300146AFF361
:1003E0000080BDE81C4070474FF0000200B5134686
:1003F00094469646203922BFA0E80C50A0E80C5045
:10040000B1F12001BFF4F7AF090728BFA0E80C50F5
:1004100048BF0CC05DF804EB890028BF40F8042BEE
:1004200008BF704748BF20F8022B11F0804F18BF5B
:1004300000F8012B704770477047704710B500F007
:1004400009F8006810BD10B5044600F003F8046018
:1004500010BD000000487047B801002000487047F8
:10046000B80100207546FFF7F9FFAE460500694662
:10047000534620F00700854618B020B5FFF72AFF45
:10048000BDE820404FF000064FF000074FF0000895
:100490004FF0000BAC46ACE8C009ACE8C009ACE8D2
:1004A000C009ACE8C00921F007018D46704710B5BE
:1004B0000446AFF300802046BDE81040FFF7F5BECC
:1004C00001491820ABBEFEE726000200704700007D
:1004D00080B541F65820C2F2000002F097FA41F6CA
:1004E000C420C2F2000002F091FA80BD80B586B04F
:1004F0000490002002900498006808F0F7F80028A3
:1005000040F09280FFE70498006880683F21C8F2BD
:10051000000108420ED0FFE70499C86D40F01000BA
:10052000C8650499086E40F00100086601208DF846
:1005300017007DE00498006808F038F80498016816
:100540000120B1F1A04F01900CD0FFE704980068A2
:100550004FF60071CAF6FF710844B0FA80F0400906
:100560000190FFE70198C10740F20070C5F200005A
:1005700000291CBF40F20030C5F2000008F034F83A
:100580004FEA002000281CD5FFE740F22000C2F20D
:1005900000000068800942F66351C0F23E51A0FBA2
:1005A0000110800900EB40010C2000EB810002905B
:1005B000FFE7029820B1FFE7029801380290F8E7C0
:1005C000FFE703F07FFB0390FFE7049800680068F3
:1005D000C00740BBFFE70498006808F087F828B917
:1005E000FFE70498006807F0E1FFFFE703F06AFB0C
:1005F0000399401A032815D3FFE7049800680068A0
:10060000C00770B9FFE70499C86D40F01000C865D5
:100610000499086E40F00100086601208DF817006B
:1006200006E0FFE7D1E7FFE700208DF81700FFE7BE
:100630009DF8170006B080BDFFE7FEE784B08DF897
:100640000F000291ADF806209DF80F0001460091C1
:1006500023281DD80099DFE801F012131415161B8A
:100660001B1B1B1B1B1B1B1B1B1B1B1B1B1B1B1BDA
:100670001B1B1B1B1B1B1B1B1B1B1718191A08E022
:1006800007E006E005E004E003E002E001E000E04E
:10069000FFE7002004B070470020704780B582B0AB
:1006A00041F28870C2F20000009040F62471C2F25C
:1006B0000001002201920BF06DFE009840F22471BF
:1006C000C2F200010BF04CFE019802B080BD0000A8
:1006D00080B584B003900291039941F28870C2F210
:1006E000000001900BF03CFE01980BF0E3FD0020B0
:1006F00004B080BD83B0029001918DF803200020EA
:100700008DF802009DF9020003B0704780B586B0F5
:100710000490ADF80E1000208DF80D0041F28870A5
:10072000C2F20000D0F8BC0202900298D0F8140285
:1007300020B1FFE701208DF8170013E00499BDF800
:100740000E2041F28870C2F2000001900BF022FEF0
:1007500001980BF00DFF8DF80D009DF80D008DF840
:100760001700FFE79DF8170006B080BD82B001902A
:1007700000910198006800990860019890ED000AC6
:1007800090ED011A31EE011A30EE010A9FED041AC4
:1007900080EE010A009880ED010A02B0704700BFA8
:1007A000D7B3DD3F80B586B0059000200290FFE70B
:1007B00002980F2846DCFFE7012003F06BF841F6B2
:1007C0005820C2F200000190092101F0A1F9014670
:1007D0000198059A118040F20F1101F099F9014634
:1007E0000198059A518040F2152101F091F90146D6
:1007F0000198059A918040F21B3101F089F9059921
:10080000C88605980188BDF812000844ADF81200AA
:1008100005984188BDF810000844ADF8100005980F
:100820008188BDF80E000844ADF80E000598C18E11
:10083000BDF80C000844ADF80C00FFE70298013049
:100840000290B5E7BDF91200000905990886BDF9C7
:100850001000000905994886BDF90E0000090599A8
:100860008886BDF90C0000090599C88606B080BDD0
:1008700080B586B041F23C70C2F20000029000F0F8
:1008800097F808F00FF99FED481A20EE010A9FED46
:10089000471A80EE010A42F26C00C2F20000039097
:1008A00080ED000A90ED000AF1EE0C0A08F060FD00
:1008B0000299039880ED020A8A6840F29C20C2F2F5
:1008C00000000260C968416040F2A421C2F2000148
:1008D0000091FFF74BFF0098029B039902689A6111
:1008E0004268DA6191ED020A40F2AC21C2F20001E5
:1008F000019109F071F9019902980A680262496848
:10090000416241F28471C2F200010968816240F2E1
:100910009411C2F200010968C162D0ED080A90ED9D
:100920000A0A40F21820C2F2000009F097F9029872
:1009300042F2B841C2F20001059181ED060AD0ED04
:10094000090A90ED0B0A40F23820C2F2000009F0CB
:1009500085F90399059A82ED070A936941F22C7093
:10096000C2F200000360D269426091ED020A41F2D6
:100970002471C2F20001049107F0CAFD04990598A0
:100980000A6802614968416190ED040AD0ED050AE8
:1009900040F2B420C2F20000B2EE081A09F0B4FC32
:1009A00009F0CEF806B080BDDB0FC94000008046DC
:1009B00080B582B0019041F65820C2F2000000904C
:1009C000092101F0A5F801460098019A118040F232
:1009D0000F1101F09DF801460098019A518040F2F4
:1009E000152101F095F801460098019A918040F296
:1009F0001B3101F08DF80199C8800198B0F9001001
:100A0000B0F93020891A00EE101AB8EEC00A9FED36
:100A1000233A20EE030A9FED222A80EE020A9FED80
:100A2000211A80EE010A80ED020A0198B0F9021045
:100A3000B0F93220891A00EE101AB8EEC00A20EE82
:100A4000030A80EE020A80EE010A80ED030A019893
:100A5000B0F90410B0F93420891A00EE101AB8EE7B
:100A6000C00A20EE030A80EE020A80EE010A80ED41
:100A7000040A0198B0F90610B0F93620891A00EE80
:100A8000101AB8EEC00A20EE030A80EE020A80EEC9
:100A9000010A80ED050A02B080BD00BF3333534028
:100AA00000008045CCCCCC3D80B541F63030C2F260
:100AB000000002F097FD80BD80B541F69030C2F293
:100AC000000002F08FFD80BD84B0039003980068A1
:100AD00040F20741C4F20201884206D8FFE740F61F
:100AE0000000C4F20200009005E040F62000C4F2CD
:100AF00002000090FFE70098029003980078083801
:100B00004CF6CD41CCF6CC41A0FB01100009019080
:100B1000029803994A6C22F00302104488640399F6
:100B200040F68000C4F20200C864019800F01F0182
:100B3000012088400399086504B0704782B0019095
:100B4000019800790090009940F6FC00C4F2020080
:100B500000EB810001994865019940F64010C4F20C
:100B6000020088650098013800F01F0101208840CC
:100B70000199C86502B070477047000080B586B023
:100B800041F23C70C2F20000FFF712FF42F26C002B
:100B9000C2F2000090ED030A90ED041A30EE010A53
:100BA00080ED030A90ED030A9FED4F1AB4EE410A5F
:100BB000F1EE10FA07DDFFE742F26C01C2F200012C
:100BC0000020C86016E042F26C00C2F2000090ED16
:100BD000030AB5EE400AF1EE10FA0ADAFFE742F234
:100BE0006C01C2F2000140F6DB70C4F2C900C860BB
:100BF000FFE7FFE741F23C71C2F2000102918A680F
:100C000040F29C20C2F200000260C968416040F2DC
:100C1000A421C2F200010091FFF7A8FD0098029AFA
:100C2000016891614168D16142F26C01C2F2000138
:100C3000039191ED030A40F2AC21C2F2000101914F
:100C400008F0CAFF019902980A6802624968416285
:100C5000002181624FF08041C162D0ED080A90ED21
:100C60000A0A40F21820C2F2000008F0F7FF0298CA
:100C700042F2B841C2F20001059181ED060AD0EDC1
:100C8000090A90ED0B0A40F23820C2F2000008F089
:100C9000E5FF0399059A82ED070A936941F22C70EA
:100CA000C2F200000360D269426091ED030A41F292
:100CB0002471C2F20001049107F02AFC04990598FE
:100CC0000A6802614968416190ED040AD0ED050AA5
:100CD00040F2B420C2F20000B2EE081A09F014FB90
:100CE00008F02EFF06B080BDDB0FC94080B582B092
:100CF00042F2B840C2F20000002181614FF07E5103
:100D0000C161826941F22C71C2F200010A60C069BE
:100D1000486042F26C00C2F2000090ED030A90EDD0
:100D2000041A30EE010A80ED030A90ED030A9FEDEC
:100D3000281AB4EE410AF1EE10FA07DDFFE742F29D
:100D40006C01C2F200010020C86016E042F26C00A3
:100D5000C2F2000090ED030AB5EE400AF1EE10FA7F
:100D60000ADAFFE742F26C01C2F2000140F6DB70E2
:100D7000C4F2C900C860FFE7FFE742F26C00C2F2AC
:100D8000000090ED030A41F22C70C2F2000041F223
:100D90002471C2F20001019107F0BAFB01990A68BF
:100DA00042F2B840C2F2000002614968416190ED30
:100DB000040AD0ED050A40F2B420C2F20000B2EEFF
:100DC000081A09F0A1FA08F0BBFE02B080BD00BF0E
:100DD000DB0FC94081B0EFF3108072B60090FFE7DF
:100DE000FEE7000080B58AB041F63070C2F2000024
:100DF00004900021019107F085F8049804210291E4
:100E000007F080F804980821039107F07BF8049814
:100E10000C2107F077F80199049806F0A7FA0299D7
:100E2000049806F0A3FA0399049806F09FFA049830
:100E3000016840F61650086441F65820C2F20000DE
:100E400000F0A0FE642002F025FD41F23C70C2F2E9
:100E50000000FFF7A7FC42F26C01C2F2000105910D
:100E60004DF20A70C3F6A330086142F26000C2F28C
:100E7000000007F0F3FD0599062081F8240040F2F8
:100E80008410C2F2000090ED000A40F27C10C2F221
:100E90000000D0ED000A40F21820C2F200009FEDE1
:100EA000241A8DED081AF3EE041ACDED091A9FED00
:100EB000212A8DED062AF0EE082ACDED072A08F04A
:100EC00067FF9DED062ADDED072A9DED081ADDED91
:100ED000091A40F28810C2F2000090ED000A40F2B8
:100EE0008010C2F20000D0ED000A40F23820C2F2B9
:100EF000000008F04DFF9DED081ADDED091A40F2E3
:100F00008C10C2F2000090ED000A41F28070C2F233
:100F10000000D0ED000A40F25820C2F200009FED20
:100F2000062ADFED062A08F033FF0AB080BD00BFB5
:100F300000000000ACC52738ACC52739CDCCCC3E6D
:100F400080B582B042F26C00C2F2000090F824003A
:100F5000013801460191092821D80199DFE801F003
:100F600005080B0E111417181B1EFFF7BFFE17E024
:100F7000FFF704FE14E00EF06DFC11E0FFF778FCC3
:100F80000EE00EF0E5FE0BE00EF018FD08E007E0C5
:100F90000FF050F804E00EF0BFFF01E000E0FFE7C3
:100FA00002B080BD80B584B047F29050C1F6FF70AA
:100FB0000068039047F29450C1F6FF7000680290F9
:100FC00047F29850C1F6FF700068019001990398AC
:100FD00008440390039888B1FFE7039840F260113A
:100FE000C2F2000100910231082207F055FA00997F
:100FF00002981231042207F04FFAFFE704B080BDD7
:1010000081B0009001B0704780B5C6B026902591A0
:1010100000208DF893001F901E902698406908B11B
:10102000FFE7FFE72598C0680021C4F27F018842EE
:1010300001D0FFE700E0FFE7FFE7269890F85800AF
:10104000012805D1FFE702208DF89F0000F03DBD8B
:101050002699012081F85800FFE7FFE726984069AC
:1010600028B1FFE72598006A01282FD1FFE72598CE
:101070004068092829D1FFE72598806A68B1FFE711
:1010800025990A68886AC96A02F0F84200F07C0073
:1010900040EA524008431E9006E02598006800F0A0
:1010A000F840400C1E90FFE726980068C06C44F2A0
:1010B0000001C0F2104108401E99084326990968B2
:1010C000C8641E9826994866FFE747E02698806E18
:1010D000E0B9FFE72598006A2699886626990020DE
:1010E00048662598806A58B1FFE72599086A8A6A98
:1010F000C96A013802F07C02104308431E9004E0E4
:101100002598006A01381E90FFE7FFE725990868D7
:101110004968C0F3846001F01F0100FA01F11E98D4
:1011200008431E902699886E013888661E9A269973
:10113000486E104348662698806E70B9FFE726987F
:101140000068C06C44F20001C0F210410840269AC9
:101150001168526E1043C864FFE7FFE726980068E5
:1011600007F09AFA30BBFFE7259890F8250090B970
:10117000FFE726980068C06820F44010259991F890
:10118000242091F82610490541EA02510843269986
:101190000968C8600DE026980068C06820F4401017
:1011A000259991F8261040EA415026990968C860AF
:1011B000FFE7FFE72698006807F0B8FA2190269825
:1011C000006807F069FA20902198002840F0098211
:1011D000FFE72098002840F00482FFE72598806A06
:1011E00020B1FFE72598C06AA8B9FFE7259890F8D5
:1011F0002500012807D1FFE726980168C86840F05C
:101200000070C86006E026980168C86820F0007089
:10121000C860FFE716E0259890F82500012809D15D
:10122000FFE72699C86D40F02000C86501208DF8C1
:10123000930006E026980168C86820F00070C86036
:10124000FFE7FFE7259890F83000012810D1FFE76D
:1012500026980068006920F4FF71259A506B926B04
:101260001043084340F0020026990968086106E02F
:1012700026980168086920F002000861FFE72598B8
:101280008068B0F1004F0ED1FFE7269800682599DD
:101290000968002207F098FA269800684FF000418C
:1012A00007F0CEFB0CE026980068259A116892683A
:1012B00007F08AFA26980068002107F0C1FBFFE7D3
:1012C0002598406926990968C96801F018018908BC
:1012D000884023902598006904281CD0FFE72698B1
:1012E000006825990A680969239B07F005FB269881
:1012F0000068259A1169926907F058FB26980068E2
:10130000259A1169127F013AB2FA82F25209520605
:1013100007F024FB64E126980068002107F09CF99F
:10132000400348B9FFE726980068002107F094F9C8
:10133000C0F384601D9018E026980068002107F033
:101340008BF990FAA0F02890289820B9FFE7202088
:101350008DF8A70005E02898B0FA80F08DF8A70076
:10136000FFE79DF8A7001D90FFE71D981C902598AA
:101370000068400330B9FFE725980068C0F3846037
:101380001B9015E02598006890FAA0F02A902A9802
:1013900020B9FFE720208DF8AF0005E02A98B0FAC9
:1013A00080F08DF8AF00FFE79DF8AF001B90FFE7DE
:1013B0001C981B99884207D1FFE7269800680022F5
:1013C000114607F01BFBFFE726980068012107F094
:1013D00043F9400348B9FFE726980068012107F068
:1013E0003BF9C0F384601A9018E026980068012148
:1013F00007F032F990FAA0F02C902C9820B9FFE772
:1014000020208DF8B70005E02C98B0FA80F08DF818
:10141000B700FFE79DF8B7001A90FFE71A981990F8
:1014200025980068400330B9FFE725980068C0F3AD
:101430008460189015E02598006890FAA0F02E902E
:101440002E9820B9FFE720208DF8BF0005E02E98E8
:10145000B0FA80F08DF8BF00FFE79DF8BF0018904C
:10146000FFE719981899884207D1FFE72698006886
:101470000121002207F0C2FAFFE726980068022146
:1014800007F0EAF8400348B9FFE726980068022110
:1014900007F0E2F8C0F38460179018E0269800681F
:1014A000022107F0D9F890FAA0F03090309820B9D6
:1014B000FFE720208DF8C70005E03098B0FA80F0F3
:1014C0008DF8C700FFE79DF8C7001790FFE7179852
:1014D000169025980068400330B9FFE7259800680A
:1014E000C0F38460159015E02598006890FAA0F08C
:1014F0003290329820B9FFE720208DF8CF0005E028
:101500003298B0FA80F08DF8CF00FFE79DF8CF0059
:101510001590FFE716981599884207D1FFE726989E
:1015200000680221002207F069FAFFE726980068A8
:10153000032107F091F8400348B9FFE726980068B7
:10154000032107F089F8C0F38460149018E026980E
:101550000068032107F080F890FAA0F042904298CA
:1015600020B9FFE720208DF80F0105E04298B0FA7E
:1015700080F08DF80F01FFE79DF80F011490FFE751
:101580001498139025980068400330B9FFE7259818
:101590000068C0F38460129015E02598006890FA06
:1015A000A0F04490449820B9FFE720208DF817015F
:1015B00005E04498B0FA80F08DF81701FFE79DF838
:1015C00017011290FFE713981299884207D1FFE79D
:1015D000269800680321002207F010FAFFE7FFE7D2
:1015E000FFE72698006807F089F8002840F044815A
:1015F000FFE726980068259A1168D26807F01AF963
:101600002598C0680021C4F27F01884240F03381F0
:10161000FFE726980068119025980068400330B9CC
:10162000FFE725980068C0F38460109015E02598C6
:10163000006890FAA0F04090409820B9FFE7202081
:101640008DF8070105E04098B0FA80F08DF80701A9
:10165000FFE79DF807011090FFE71098013000F0B8
:101660001F0009287DD8FFE725980068400330B99E
:10167000FFE725980068C0F384600F9015E0259877
:10168000006890FAA0F03E903E9820B9FFE7202035
:101690008DF8FF0005E03E98B0FA80F08DF8FF006D
:1016A000FFE79DF8FF000F90FFE70F98013000F073
:1016B0001F0080060E9025980068400330B9FFE7B0
:1016C00025980068C0F384600D9015E025980068A7
:1016D00090FAA0F03C903C9820B9FFE720208DF8CC
:1016E000F70005E03C98B0FA80F08DF8F700FFE7CE
:1016F0009DF8F7000D90FFE70E980D99013101F06C
:101700001F020121914008430C9025980068400376
:1017100030B9FFE725980068C0F384600B9015E0AE
:101720002598006890FAA0F03A903A9820B9FFE71F
:1017300020208DF8EF0005E03A98B0FA80F08DF89F
:10174000EF00FFE79DF8EF000B90FFE70C980B9977
:10175000013101F01F0101EB410140EA01500A9003
:1017600082E025980068400330B9FFE725980068BB
:10177000C0F38460099015E02598006890FAA0F005
:101780003890389820B9FFE720208DF8E70005E071
:101790003898B0FA80F08DF8E700FFE79DF8E70091
:1017A0000990FFE70998013000F01F0080060890BB
:1017B00025980068400330B9FFE725980068C0F31A
:1017C0008460079015E02598006890FAA0F03690A4
:1017D000369820B9FFE720208DF8DF0005E0369825
:1017E000B0FA80F08DF8DF00FFE79DF8DF0007908A
:1017F000FFE708980799013101F01F02012191408C
:101800000843069025980068400330B9FFE7259803
:101810000068C0F38460059015E02598006890FA90
:10182000A0F03490349820B9FFE720208DF8D7003D
:1018300005E03498B0FA80F08DF8D700FFE79DF806
:10184000D7000590FFE706990598013000F01F00CA
:1018500000EB40020020CFF6206000EB025008436E
:1018600040F000700A90FFE711980A99259A926853
:1018700006F0AAFFFFE7FFE72598408848F2080135
:10188000084200F01781FFE7269801680120B1F1B6
:10189000A04F04900CD0FFE7269800684FF6007127
:1018A000CAF6FF710844B0FA80F040090490FFE7DF
:1018B0000498C10740F20070C5F2000000291CBF67
:1018C00040F20030C5F2000006F096FE2290259806
:1018D000006840F20001CCF22131884208D0FFE7D5
:1018E000259800681021C9F2C00188425AD1FFE74B
:1018F0009DF88A000006002854D4FFE72698006867
:10190000B0F1A04F09D0FFE72698006840F20061CF
:10191000C5F20001884244D1FFE726980168012002
:10192000B1F1A04F03900CD0FFE7269800684FF666
:101930000071CAF6FF710844B0FA80F040090390C4
:10194000FFE70398C10740F20070C5F200000029CC
:101950001CBF40F20030C5F20000229941F40001A2
:1019600006F09EFF40F22000C2F2000000684FEA3D
:10197000901042F66351C0F23E51A0FB01104FEAB5
:10198000901000EB40014FF0180000EB81001F9019
:10199000FFE71F9820B1FFE71F9801381F90F8E775
:1019A000FFE786E0259800680021CCF2527188425A
:1019B0003ED1FFE79DF88B00C007C8BBFFE7269824
:1019C000006840F20011C5F20001884209D1FFE72A
:1019D0002698006840F20051C5F20001884226D0E6
:1019E000FFE7269801680120B1F1A04F02900CD0CA
:1019F000FFE7269800684FF60071CAF6FF710844A9
:101A0000B0FA80F040090290FFE70298C10740F267
:101A10000070C5F2000000291CBF40F20030C5F282
:101A20000000229941F0807106F03AFFFFE73FE0A5
:101A3000259800680021CCF68431884236D1FFE732
:101A40009DF88A004006002830D4FFE726980068F9
:101A500040F20011C5F20001884226D0FFE7269827
:101A600001680120B1F1A04F01900CD0FFE726984A
:101A700000684FF60071CAF6FF710844B0FA80F0B2
:101A800040090190FFE70198C10740F20070C5F2DC
:101A9000000000291CBF40F20030C5F2000022996E
:101AA00041F4800106F0FCFEFFE700E0FFE7FFE7FE
:101AB000FFE7FFE7FFE72699002081F85800FFE7DE
:101AC0009DF893008DF89F00FFE79DF89F0046B0BA
:101AD00080BD000080B584B0039003980068B0F129
:101AE000A04F13D1FFE740F60000C4F600000190BC
:101AF0004FF400710291012202F0CEF8FFF720FAB4
:101B000001980299002202F0C7F8FFE704B080BDF7
:101B100084B00390029102980090092824D0FFE736
:101B2000009840F20F11884218D0FFE7009840F269
:101B3000152188420CD0FFE7009840F21B31884203
:101B400013D1FFE703980068D0F88C00019012E0F1
:101B500003980068D0F8880001900CE003980068B2
:101B6000D0F88400019006E0FFE703980068D0F801
:101B700080000190FFE7019804B0704781B00090A9
:101B800001B0704780B58AB00890089801680120BC
:101B9000B1F1A04F04900CD0FFE7089800684FF611
:101BA0000071CAF6FF710844B0FA80F04009049051
:101BB000FFE70498C10740F20070C5F20000002959
:101BC0001CBF40F20030C5F2000006F02DFD05906C
:101BD0000898006806F060FD20B1FFE702208DF84C
:101BE000270009E108980068C06800F000400690EE
:101BF00008980068C06C10F4C07F0CD1FFE706980D
:101C000048B9FFE70899C86D40F02000C865012079
:101C10008DF82700F0E0FFE7089890F858000128B9
:101C200004D1FFE702208DF82700E5E008990120A4
:101C300081F85800FFE7FFE70898FEF757FC8DF89A
:101C40001F009DF81F00002840F0CA80FFE7089899
:101C5000C06DC005002806D5FFE70899086E20F082
:101C60000800086603E0089900200866FFE7089866
:101C7000C06D40F4805042F2010188430899C86564
:101C80000898006840F20011C5F20001884204D1B2
:101C9000FFE74FF0A040039015E00898006840F27D
:101CA0000051C5F20001884206D1FFE740F2004032
:101CB000C5F20000029003E0089800680290FFE778
:101CC00002980390FFE7039808990968884203D0B7
:101CD000FFE7059830B9FFE70899C86D20F4801038
:101CE000C865FFE70898016860200860FFE7089969
:101CF000002081F85800FFE708980068C06880025B
:101D0000002807D5FFE708980168486840F480601C
:101D10004860FFE70898806908280DD1FFE7089818
:101D20000168486820F02000486008980168486809
:101D300040F0400048600CE008980168486820F0D6
:101D40004000486008980168486840F020004860FA
:101D5000FFE70898006840F20011C5F200018842D0
:101D600004D1FFE74FF0A040019015E0089800680B
:101D700040F20051C5F20001884206D1FFE740F26F
:101D80000040C5F20000009003E008980068009051
:101D9000FFE700980190FFE70198089909688842D9
:101DA0000BD0FFE7059840B1FFE70598062804D05F
:101DB000FFE7059807280CD1FFE70898006806F0B0
:101DC0005BFC28B9FFE70898006806F079FCFFE79C
:101DD00005E00899C86D40F48010C865FFE706E08B
:101DE000FFE70899002081F85800FFE7FFE79DF81A
:101DF0001F008DF82700FFE79DF827000AB080BD7F
:101E000081B0009001B0704781B0009001B0704780
:101E100080B5AEB02C902B9100208DF8AB002B98A4
:101E2000006808B1FFE7FFE7FFE72C9890F858003B
:101E3000012804D1FFE702208DF8B7005DE12C995D
:101E4000012081F85800FFE7FFE700202590269049
:101E50002C980068B0F1A04F06D1FFE740F20010C7
:101E6000C5F200000E9015E02C98006840F2004189
:101E7000C5F20001884207D1FFE740F20050C5F2E9
:101E800000000E900C9003E000200E900C90FFE7F5
:101E90000C98FFE70E9878B9FFE72C99C86D40F0D1
:101EA0002000C865FFE72C99002081F85800FFE763
:101EB00001208DF8B70020E10E9806F037FC0D9058
:101EC0002C98006806F032FC002840F00281FFE701
:101ED0000D98002840F0FD80FFE72C980168012054
:101EE000B1F1A04F0B900CD0FFE72C9800684FF693
:101EF0000071CAF6FF710844B0FA80F040090B90F7
:101F0000FFE70B98C10740F20070C5F200000029FE
:101F10001CBF40F20030C5F2000029902B980068E9
:101F2000002872D0FFE72998806820F460402B9940
:101F300049682C9A92F8382041EA4231084329999D
:101F400088602C9801680120B1F1A04F0A900CD054
:101F5000FFE72C9800684FF60071CAF6FF7108443D
:101F6000B0FA80F040090A90FFE70A98C10740F2F2
:101F70000070C5F2000000291CBF40F20030C5F21D
:101F8000000040F20031C5F20001884210D1FFE7A5
:101F90004FF0A04006F0B2FB089040F20010C5F2EE
:101FA000000006F0ABFB01460898084309901BE0CF
:101FB00040F20040C5F2000006F0A0FB069040F29F
:101FC0000050C5F2000006F099FB01460698084350
:101FD000079040F20060C5F2000006F08FFB01465A
:101FE000079808430990FFE7099868B9FFE729981F
:101FF000806840F61F7188432B9A116892681143DC
:10200000084329998860FFE762E02999886820F4ED
:10201000604088602C9801680120B1F1A04F0590C4
:102020000CD0FFE72C9800684FF60071CAF6FF71DC
:102030000844B0FA80F040090590FFE70598C10711
:1020400040F20070C5F2000000291CBF40F20030D1
:10205000C5F2000040F20031C5F20001884210D103
:10206000FFE74FF0A04006F049FB039040F200105C
:10207000C5F2000006F042FB0146039808430490B5
:102080001BE040F20040C5F2000006F037FB019073
:1020900040F20050C5F2000006F030FB0146019806
:1020A0000843029040F20060C5F2000006F026FBF3
:1020B0000146029808430490FFE7049838B9FFE707
:1020C0002999886840F61F7290438860FFE7FFE710
:1020D00008E02C99C86D40F02000C86501208DF8FB
:1020E000AB00FFE7FFE72C99002081F85800FFE7DD
:1020F0009DF8AB008DF8B700FFE79DF8B7002EB054
:1021000080BD000080B5C4B02490239100208DF8DC
:102110008B001F902398C0680021C4F27F01884281
:1021200001D0FFE700E0FFE7FFE7249890F85800B0
:10213000012805D1FFE702208DF8970000F059BC77
:102140002499012081F85800FFE7FFE724980068F0
:1021500006F0E4FA002840F03884FFE7249800688D
:1021600023990A68496806F0F5FA2498006806F091
:10217000D5FA1E902498006806F086FA1D901E98E5
:10218000002840F0B881FFE71D98002840F0B38197
:10219000FFE723988068B0F1004F0ED1FFE7249845
:1021A000006823990968002206F0F2FA2498006872
:1021B0004FF0004106F036FC0CE024980068239AAA
:1021C0001168926806F0E4FA24980068002106F08D
:1021D00029FCFFE72398406924990968C96801F040
:1021E00018018908884021902398006904281CD090
:1021F000FFE72498006823990A680969219B06F083
:102200005DFB24980068239A1169926906F0BAFB75
:1022100024980068239A1169127F013AB2FA82F277
:102220005209520606F086FB64E1249800680021FA
:1022300006F002FA400348B9FFE72498006800213D
:1022400006F0FAF9C0F384601C9018E02498006846
:10225000002106F0F1F990FAA0F02690269820B916
:10226000FFE720208DF89F0005E02698B0FA80F067
:102270008DF89F00FFE79DF89F001C90FFE71C98DA
:102280001B9023980068400330B9FFE7239800684B
:10229000C0F384601A9015E02398006890FAA0F0CB
:1022A0002890289820B9FFE720208DF8A70005E0A6
:1022B0002898B0FA80F08DF8A700FFE79DF8A700F6
:1022C0001A90FFE71B981A99884207D1FFE72498D4
:1022D00000680022114606F07DFBFFE724980068A5
:1022E000012106F0A9F9400348B9FFE724980068E6
:1022F000012106F0A1F9C0F38460199018E0249838
:102300000068012106F098F990FAA0F02A902A9826
:1023100020B9FFE720208DF8AF0005E02A98B0FA39
:1023200080F08DF8AF00FFE79DF8AF001990FFE750
:102330001998189023980068400330B9FFE7239854
:102340000068C0F38460179015E02398006890FA45
:10235000A0F02C902C9820B9FFE720208DF8B70032
:1023600005E02C98B0FA80F08DF8B700FFE79DF8F3
:10237000B7001790FFE718981799884207D1FFE731
:10238000249800680121002206F024FBFFE724982E
:102390000068022106F050F9400348B9FFE724988D
:1023A0000068022106F048F9C0F38460169018E036
:1023B00024980068022106F03FF990FAA0F02E90D0
:1023C0002E9820B9FFE720208DF8BF0005E02E9859
:1023D000B0FA80F08DF8BF00FFE79DF8BF001690BF
:1023E000FFE71698159023980068400330B9FFE77F
:1023F00023980068C0F38460149015E02398006867
:1024000090FAA0F03090309820B9FFE720208DF8A6
:10241000C70005E03098B0FA80F08DF8C700FFE7FC
:102420009DF8C7001490FFE715981499884207D1CA
:10243000FFE7249800680221002206F0CBFAFFE7AC
:1024400024980068032106F0F7F8400348B9FFE735
:1024500024980068032106F0EFF8C0F3846013901D
:1024600018E024980068032106F0E6F890FAA0F03E
:102470004090409820B9FFE720208DF8070105E043
:102480004098B0FA80F08DF80701FFE79DF807014A
:102490001390FFE71398129023980068400330B917
:1024A000FFE723980068C0F38460119015E023983B
:1024B000006890FAA0F04290429820B9FFE72020EF
:1024C0008DF80F0105E04298B0FA80F08DF80F0109
:1024D000FFE79DF80F011190FFE7129811998842CC
:1024E00007D1FFE7249800680321002206F072FA62
:1024F000FFE7FFE7FFE72498006806F0F7F80028F9
:1025000040F04481FFE724980068239A1168D2685C
:1025100006F076F92398C0680021C4F27F01884252
:1025200040F03381FFE724980068109023980068FA
:10253000400330B9FFE723980068C0F384600F9030
:1025400015E02398006890FAA0F03E903E9820B9DC
:10255000FFE720208DF8FF0005E03E98B0FA80F0FC
:102560008DF8FF00FFE79DF8FF000F90FFE70F9841
:10257000013000F01F0009287DD8FFE7239800688C
:10258000400330B9FFE723980068C0F384600E90E1
:1025900015E02398006890FAA0F03C903C9820B990
:1025A000FFE720208DF8F70005E03C98B0FA80F0B6
:1025B0008DF8F700FFE79DF8F7000E90FFE70E9803
:1025C000013000F01F0080060D9023980068400342
:1025D00030B9FFE723980068C0F384600C9015E0E1
:1025E0002398006890FAA0F03A903A9820B9FFE753
:1025F00020208DF8EF0005E03A98B0FA80F08DF8D1
:10260000EF00FFE79DF8EF000C90FFE70D980C99A5
:10261000013101F01F020121914008430B902398E2
:102620000068400330B9FFE723980068C0F3846076
:102630000A9015E02398006890FAA0F03890389836
:1026400020B9FFE720208DF8E70005E03898B0FAC0
:1026500080F08DF8E700FFE79DF8E7000A90FFE7BC
:102660000B980A99013101F01F0101EB410140EA89
:102670000150099082E023980068400330B9FFE7D9
:1026800023980068C0F38460089015E023980068E0
:1026900090FAA0F03690369820B9FFE720208DF808
:1026A000DF0005E03698B0FA80F08DF8DF00FFE734
:1026B0009DF8DF000890FFE70898013000F01F0048
:1026C0008006079023980068400330B9FFE72398FD
:1026D0000068C0F38460069015E02398006890FAC3
:1026E000A0F03490349820B9FFE720208DF8D7006F
:1026F00005E03498B0FA80F08DF8D700FFE79DF838
:10270000D7000690FFE707980699013101F01F02F4
:10271000012191400843059023980068400330B997
:10272000FFE723980068C0F38460049015E02398C5
:10273000006890FAA0F03290329820B9FFE720208C
:102740008DF8CF0005E03298B0FA80F08DF8CF0018
:10275000FFE79DF8CF000490FFE70599049801304A
:1027600000F01F0000EB40020020CFF6206000EBDD
:102770000250084340F000700990FFE71098099953
:10278000239A926806F004F8FFE7FFE72398408851
:1027900048F20801084200F01781FFE72498016819
:1027A0000120B1F1A04F03900CD0FFE724980068FE
:1027B0004FF60071CAF6FF710844B0FA80F0400984
:1027C0000390FFE70398C10740F20070C5F20000D4
:1027D00000291CBF40F20030C5F2000005F004FFE4
:1027E00020902398006840F20001CCF22131884209
:1027F00008D0FFE7239800681021C9F2C001884281
:102800005AD1FFE79DF882000006002854D4FFE764
:1028100024980068B0F1A04F09D0FFE72498006821
:1028200040F20061C5F20001884244D1FFE72498DC
:1028300001680120B1F1A04F02900CD0FFE724986D
:1028400000684FF60071CAF6FF710844B0FA80F0D4
:1028500040090290FFE70298C10740F20070C5F2FC
:10286000000000291CBF40F20030C5F20000209992
:1028700041F4000106F006F840F22000C2F2000028
:1028800000684FEA901042F66351C0F23E51A0FB3F
:1028900001104FEA901000EB40014FF00C0000EBEC
:1028A00081001F90FFE71F9820B1FFE71F980138B4
:1028B0001F90F8E7FFE786E0239800680021CCF23C
:1028C000527188423ED1FFE79DF88300C007C8BB24
:1028D000FFE72498006840F20011C5F20001884229
:1028E00009D1FFE72498006840F20051C5F20001C9
:1028F000884226D0FFE7249801680120B1F1A04F5B
:1029000001900CD0FFE7249800684FF60071CAF6DA
:10291000FF710844B0FA80F040090190FFE7019888
:10292000C10740F20070C5F2000000291CBF40F250
:102930000030C5F20000209941F0807105F0A2FF3F
:10294000FFE73FE0239800680021CCF684318842FD
:1029500036D1FFE79DF882004006002830D4FFE71B
:102960002498006840F20011C5F20001884226D088
:10297000FFE7249801680120B1F1A04F00900CD02E
:10298000FFE7249800684FF60071CAF6FF7108440B
:10299000B0FA80F040090090FFE70098C10740F2CC
:1029A0000070C5F2000000291CBF40F20030C5F2E3
:1029B0000000209941F4800105F064FFFFE700E08A
:1029C000FFE7FFE7FFE7FFE708E02499C86D40F065
:1029D0002000C86501208DF88B00FFE7FFE72499F0
:1029E000002081F85800FFE79DF88B008DF89700D4
:1029F000FFE79DF8970044B080BD000081B00090D3
:102A000001B0704781B0009001B0704780B594B0BC
:102A1000139000201290139800680068119013988A
:102A2000006840681090139801680120B1F1A04F30
:102A30000A900CD0FFE7139800684FF60071CAF6B1
:102A4000FF710844B0FA80F040090A90FFE70A9845
:102A5000C10740F20070C5F2000000291CBF40F21F
:102A60000030C5F2000005F0D7FD0B909DF8440042
:102A70004FEA807000281AD5FFE79DF840008007D4
:102A8000002814D5FFE71398C06DC006002806D4AF
:102A9000FFE71399C86D40F40060C865FFE713981D
:102AA000FEF7AEFA1398016802200860FFE79DF870
:102AB00044004007002806D5FFE7109800F0040006
:102AC00004280ED0FFE79DF844000007002840F1DD
:102AD000C080FFE79DF840000007002840F1B98062
:102AE000FFE71398C06DC006002806D4FFE71399CE
:102AF000C86D40F40070C865FFE71398006805F0E2
:102B00001DFE002800F09D80FFE71398006840F24A
:102B10000011C5F20001884204D1FFE74FF0A04048
:102B2000099015E01398006840F20051C5F20001C9
:102B3000884206D1FFE740F20040C5F2000008904D
:102B400003E0139800680890FFE708980990FFE7F2
:102B500009981399096888420BD0FFE70B9840B198
:102B6000FFE70B98052804D0FFE70B98092805D14B
:102B7000FFE713980068C0680D9028E0139800687C
:102B800040F20011C5F20001884204D1FFE74FF086
:102B9000A040079015E01398006840F20051C5F27C
:102BA0000001884206D1FFE740F20040C5F2000074
:102BB000069003E0139800680690FFE706980790D8
:102BC000FFE707980C900C98C0680D90FFE70D98F0
:102BD00000F40050B0F5005F32D0FFE713980068B2
:102BE0000068000700282AD5FFE71398006805F061
:102BF00095FDC0B9FFE713980168486820F00C0004
:102C000048601399C86D20F48070C8651398C06D32
:102C1000C004002806D4FFE71399C86D40F00100F6
:102C2000C865FFE70AE01399C86D40F01000C86559
:102C30001399086E40F001000866FFE7FFE7FFE721
:102C4000FFE71398FFF7DAFE139801680C2008607D
:102C5000FFE79DF844008006002806D5FFE710989E
:102C600000F0200020280ED0FFE79DF84400400629
:102C7000002840F1D680FFE79DF84000400600287C
:102C800040F1CF80FFE71398C06DC006002806D43E
:102C9000FFE71399C86D40F40050C865FFE713982B
:102CA000006805F001FD0F901398006805F046FDDF
:102CB0000E901398006840F20011C5F2000188429E
:102CC00004D1FFE74FF0A040059015E0139800688D
:102CD00040F20051C5F20001884206D1FFE740F200
:102CE0000040C5F20000049003E0139800680490CF
:102CF000FFE704980590FFE7059813990968884253
:102D00000BD0FFE70B9840B1FFE70B98062804D0E3
:102D1000FFE70B98072805D1FFE713980068C06804
:102D20000D9028E01398006840F20011C5F20001F0
:102D3000884204D1FFE74FF0A040039015E01398BC
:102D4000006840F20051C5F20001884206D1FFE759
:102D500040F20040C5F20000029003E013980068C2
:102D60000290FFE702980390FFE703980C900C98FD
:102D7000C0680D90FFE70F9800284AD0FFE79DF844
:102D80003700800700280AD5FFE70E9800283FD0BB
:102D9000FFE79DF835008006002839D4FFE7139837
:102DA000006800684006002831D5FFE79DF836002E
:102DB000800600282AD4FFE71398006805F064FC19
:102DC000C0B9FFE713980168486820F060004860C8
:102DD0001399C86D20F48050C8651398C06DC00564
:102DE000002806D4FFE71399C86D40F00100C865BC
:102DF000FFE70AE01399C86D40F01000C865139909
:102E0000086E40F001000866FFE7FFE7FFE7FFE715
:102E1000FFE71398FEF75EFE1398016860200860D4
:102E2000FFE79DF844000006002813D5FFE79DF852
:102E30004000000600280DD5FFE71399C86D40F447
:102E40008030C865139800F0A9FA139801688020B3
:102E50000860FFE79DF84500C00798B1FFE79DF8BF
:102E60004100C00770B1FFE71399C86D40F400300E
:102E7000C8651398FEF7C4FF139801684FF480707B
:102E80000860FFE79DF845008007002814D5FFE79C
:102E90009DF84100800700280ED5FFE71399C86D03
:102EA00040F48020C8651398FEF7AEFF13980168C0
:102EB0004FF400700860FFE79DF84400C00600284A
:102EC0005AD5FFE79DF84000C006002854D5FFE71B
:102ED0001398C06B18B9FFE70120129035E00B98EA
:102EE00040B3FFE7139801680120B1F1A04F0190B2
:102EF0000CD0FFE7139800684FF60071CAF6FF7117
:102F00000844B0FA80F040090190FFE70198C1073A
:102F100040F20070C5F2000000291CBF40F20030F2
:102F2000C5F2000005F070FB18B1FFE70120129018
:102F3000FFE709E013980068C068C00718B1FFE711
:102F400001201290FFE7FFE7FFE7129801280ED15A
:102F5000FFE71399C86D40F48060C8651399086E47
:102F600040F0020008661398FFF74CFDFFE7139846
:102F7000016810200860FFE79DF845004007002821
:102F800019D5FFE79DF841004007002813D5FFE75A
:102F90001399C86D40F48040C8651399086E40F0DD
:102FA00008000866139801684FF480600860139861
:102FB000FEF7E4FDFFE714B080BD000080B58EB0E1
:102FC0000C9000208DF82F0007900C9820B9FFE797
:102FD00001208DF83700DCE10C98406940B1FFE733
:102FE0000C9890F82400012801D1FFE7FFE7FFE7E4
:102FF0000C98C06D50B9FFE70C9800F0D3F90C990C
:10300000002008660C9981F85800FFE70C980068CA
:1030100005F064FB28B1FFE70C98006805F0BAFAE8
:10302000FFE70C98006805F071FBF0B9FFE70C981A
:10303000006805F0C9FA40F22000C2F20000006802
:10304000800942F66351C0F23E51A0FB0110810994
:10305000022000EB41000790FFE7079820B1FFE74F
:10306000079801380790F8E7FFE70C98006805F02B
:103070004DFB70B9FFE70C99C86D40F01000C865B2
:103080000C99086E40F00100086601208DF82F00B1
:10309000FFE70C98006805F041FB09900C98C06DA3
:1030A000C006002800F16781FFE70998002840F07A
:1030B0006281FFE70C98C06D40F0020020F4807040
:1030C0000C99C8650C98006805F010FB00287CD1AD
:1030D000FFE70C9801680120B1F1A04F06900CD0D9
:1030E000FFE70C9800684FF60071CAF6FF710844BC
:1030F000B0FA80F040090690FFE70698C10740F259
:103100000070C5F2000000291CBF40F20030C5F27B
:10311000000040F20031C5F20001884210D1FFE703
:103120004FF0A04005F0E2FA049040F20010C5F222
:10313000000005F0DBFA01460498084305901BE007
:1031400040F20040C5F2000005F0D0FA029040F2D3
:103150000050C5F2000005F0C9FA01460298084384
:10316000039040F20060C5F2000005F0BFFA01468E
:10317000039808430590FFE7059828BBFFE70C98E4
:1031800001680120B1F1A04F01900CD0FFE70C982D
:1031900000684FF60071CAF6FF710844B0FA80F07B
:1031A00040090190FFE70198C10740F20070C5F2A5
:1031B000000000291CBF40F20030C5F200000C994D
:1031C000496805F051FBFFE7FFE70C994A7FC86BA0
:1031D00040EA42308A68CB681843104391F82410C3
:1031E00040EA01400A900C9890F8240001280BD185
:1031F000FFE70C98816A0020CFF6FE7000EB41419A
:103200000A9808430A90FFE70C98C06A50B1FFE79C
:103210000C99C86A096B00F4787001430A98084356
:103220000A90FFE70C980068C06844F20701CFF6E7
:10323000F07108400A9908430C990968C8600C9815
:103240000068006920F040600C9A1168526B1043CE
:1032500008610C98006805F017FA08900998002892
:1032600068D1FFE70898002864D1FFE70C99087F30
:1032700091F83810800340EA41000A900C980068E9
:10328000C06844F2020188430A9908430C9909680E
:10329000C8600C980069A0B1FFE70C980168086944
:1032A00040F4803008610C980068D0F8C00043F604
:1032B000FF7188430C9A116812691043C1F8C0006D
:1032C00011E00C980168086920F4803008610C98BE
:1032D0000068D0F8C00043F6FF7188430C99096874
:1032E000C1F8C000FFE70C9890F84000012819D100
:1032F000FFE70C980068006940F2FD7120EA0102C6
:103300000C9B1968586CD3F848E0D3F84CC040EADD
:103310000E0040EA0C001B6D1843104340F0010002
:10332000086106E00C980168086920F00100086156
:10333000FFE7FFE70C98406901280CD1FFE70C98E4
:103340000068006B20F00F000C9A1168126A013AB5
:103350001043086306E00C980168086B20F00F002A
:103360000863FFE70C98C06D40F0010020F00200F8
:103370000C99C86508E00C99C86D40F01000C8654C
:1033800001208DF82F00FFE79DF82F008DF8370002
:10339000FFE79DF837000EB080BD000081B00090BF
:1033A00001B0704780B5A4B02390002022902190F6
:1033B00020901F901E9009A85421FDF715F823981E
:1033C0000068B0F1A04F4ED1FFE74FF400400990E4
:1033D0004FF000501A9009A802F022F818B1FFE748
:1033E000FDF7F8FCFFE740F29820C2F20000016808
:1033F000013101600068012810D1FFE7FFE741F2C9
:103400004C00C4F20200016841F400510160006800
:1034100000F4005008900898FFE7FFE7FFE741F24B
:103420004C00C4F20200016841F001010160006833
:1034300000F0010007900798FFE70F201E9003207F
:103440001F900020039020904FF090401EA900F0A4
:1034500043FA039A12200490114600F0D1FC04981C
:1034600000F0C4FC59E02398006840F20011C5F256
:103470000001884250D1FFE74FF4004009904FF01F
:1034800000501A9009A801F0CBFF18B1FFE7FDF733
:10349000A1FCFFE740F29820C2F200000168013170
:1034A00001600068012810D1FFE7FFE741F24C00FE
:1034B000C4F20200016841F400510160006800F4A8
:1034C000005006900698FFE7FFE7FFE741F24C0047
:1034D000C4F20200016841F004010160006800F0DC
:1034E000040005900598FFE707201E9003201F9019
:1034F00000200190209040F60000C4F600001EA9B4
:1035000000F0EAF9019A12200290114600F078FCCE
:10351000029800F06BFCFFE7FFE724B080BD0000DD
:1035200080B582B0019000208DF80300019890F8DA
:103530002500022811D0FFE701990420C8630199F2
:10354000012081F82500FFE70199002081F824007F
:10355000FFE701208DF803003FE00198016808684B
:1035600020F00E00086001980168086820F0010052
:1035700008600198816C086820F4807008600198E8
:10358000016C406C00F01F020120904048600198DF
:10359000C16C006D48600198406D58B1FFE701981B
:1035A000416D086820F4807008600198816DC06DDD
:1035B0004860FFE70199012081F82500FFE70199A4
:1035C000002081F82400FFE70198806B20B1FFE71D
:1035D0000198816B8847FFE7FFE79DF8030002B081
:1035E00080BD000080B584B003900398006C006833
:1035F0000290039800680068019002980399496C52
:1036000001F01F01C8404007002825D5FFE79DF8BD
:103610000400400700281FD5FFE7039800680068F2
:103620008006002807D4FFE703980168086820F0A7
:1036300004000860FFE70398016C406C00F01F0273
:103640000420904048600398006B20B1FFE7039886
:10365000016B8847FFE76EE002980399496C01F01F
:103660001F01C840800700282FD5FFE79DF8040000
:103670008007002829D5FFE70398006800688006C6
:1036800000280BD4FFE703980168086820F00A00BF
:1036900008600399012081F82500FFE70398016C79
:1036A000406C00F01F02022090404860FFE7039941
:1036B000002081F82400FFE70398C06A20B1FFE7EB
:1036C0000398C16A8847FFE734E002980399496C80
:1036D00001F01F01C8400007002829D5FFE79DF829
:1036E00004000007002823D5FFE703980168086855
:1036F00020F00E0008600398026C406C00F01F017F
:10370000012000FA01F151600399C863039981F81F
:103710002500FFE70399002081F82400FFE70398C4
:10372000406B20B1FFE70398416B8847FFE700E05B
:10373000FFE7FFE7FFE704B080BD000080B584B07D
:103740000290029820B9FFE701208DF80F009CE05D
:103750000298006840F20741C4F20201884218D87A
:10376000FFE7029908684FF6F872CBF6FD72104435
:103770004CF6CD42CCF6CC42A0FB02026FF0030027
:1037800000EA9200486402990020C4F20200086432
:1037900018E0029908684FF6F832CBF6FD72104433
:1037A0004CF6CD42CCF6CC42A0FB02026FF00300F7
:1037B00000EA92004864029940F20040C4F202001C
:1037C0000864FFE70299022081F82500029800684A
:1037D00000680190019847F6F071884301900299C2
:1037E0008868D1F80CC00B694A6940EA0C0018439C
:1037F00010438A691043CA691043096A014301985A
:103800000843019001980299096808600298FDF741
:103810005BF902988068B0F5804F04D1FFE7029908
:1038200000204860FFE702990879896C08600298D7
:10383000C16C006D48600298406888B1FFE702984B
:10384000406804280CD8FFE70298FDF777F9029842
:10385000416D002008600298816DC06D486007E0EE
:10386000029900204865029988650299C865FFE7BA
:1038700002990020C863029A012182F8251002995A
:1038800081F824008DF80F00FFE79DF80F0004B0C9
:1038900080BD000080B584B0039000F013FA029060
:1038A000039801900198013048B1FFE740F2A81059
:1038B000C2F200000168019808440190FFE7FFE7A9
:1038C00000F000FA0299401A0199884201D2FFE7FC
:1038D000F6E704B080BD00008BB00A90099100208B
:1038E0000890FFE7099800680899C840002800F090
:1038F000A581FFE709980068089A012191400840D6
:1039000007900798002800F09581FFE70998406824
:1039100000F00300012807D0FFE70998406800F095
:10392000030002282FD1FFE70A98806806900898C4
:103930004100032000FA01F1069888430690099897
:10394000C0680899490000FA01F1069808430690FA
:1039500006980A9988600A9840680690089901209C
:1039600000FA01F106988843069009984068C0F370
:103970000010089900FA01F106980843069006988D
:103980000A994860FFE70998406800F0030003289F
:1039900018D0FFE70A98C0680690089841000320F5
:1039A00000FA01F106988843069009988068089902
:1039B000490000FA01F106980843069006980A9912
:1039C000C860FFE70998406800F00300022826D18C
:1039D000FFE70A9808996FF0030202EA51010844D0
:1039E000006A0690089800F0070081000F2000FA96
:1039F00001F106988843069009980069089901F03A
:103A00000701890000FA01F106980843069006981C
:103A10000A99089B02EA530211440862FFE70A98D8
:103A20000068069008984100032000FA01F106980A
:103A3000884306900998406800F0030008994900FF
:103A400000FA01F106980843069006980A99086062
:103A5000099880798007002800F0EB80FFE7FFE7F6
:103A600041F26000C4F20200016841F0010101600E
:103A7000006800F0010005900598FFE7089820F025
:103A800003000821C4F2010140580690089800F094
:103A9000030081000F2000FA01F106988843069088
:103AA0000A98B0F1904F03D1FFE70020049042E064
:103AB0000A9840F20041C4F60001884203D1FFE7B2
:103AC0000120039034E00A9840F60001C4F600019A
:103AD000884203D1FFE70220029026E00A9840F6D0
:103AE0000041C4F60001884203D1FFE703200190A2
:103AF00018E00A9841F20001C4F60001884203D19F
:103B0000FFE7042000900AE00A9941F20042C4F65F
:103B100000020620914208BF05200090FFE70098B0
:103B20000190FFE701980290FFE702980390FFE7FA
:103B300003980490FFE70498089901F003018900B5
:103B400000FA01F10698084306900698089921F0BA
:103B500003010822C4F20102885040F20840C4F276
:103B60000100006806900799069888430690099816
:103B70008079C006002805D5FFE707990698084315
:103B80000690FFE7069840F20841C4F20101086080
:103B900040F20C40C4F201000068069007990698B4
:103BA00088430690099880798006002805D5FFE7AC
:103BB0000799069808430690FFE7069840F20C41E3
:103BC000C4F20101086040F20440C4F20100006840
:103BD000069007990698884306900998807980078F
:103BE000002805D5FFE70799069808430690FFE7E8
:103BF000069840F20441C4F20101086040F200401E
:103C0000C4F2010000680690079906988843069060
:103C100009988079C00728B1FFE7079906980843FB
:103C20000690FFE7069840F20041C4F201010860E7
:103C3000FFE7FFE708980130089053E60BB07047A4
:103C400082B00190ADF8021001980069BDF8021031
:103C5000084204D0FFE701208DF8010003E00020B6
:103C60008DF80100FFE79DF8010002B070470000E9
:103C700083B00290ADF80610029840690090009A57
:103C8000BDF8060002EA0001904340EA01400299B3
:103C9000886103B07047000082B00190ADF8021057
:103CA0008DF801209DF8010028B1FFE7BDF8020062
:103CB0000199886104E0BDF8020001998862FFE77C
:103CC00002B0704742F2A840C2F20000006870479C
:103CD00040F2A810C2F20000026842F2A841C2F20B
:103CE00000010868104408607047000080B582B089
:103CF00000208DF80700032000F09AF80F2000F054
:103D00000DF820B1FFE701208DF8070002E000F078
:103D100049F8FFE79DF8070002B080BD80B582B08A
:103D2000019000208DF8030040F2A810C2F20000BC
:103D3000006878B3FFE740F22000C2F2000000689C
:103D400040F2A811C2F200010A684FF47A71B1FB87
:103D5000F2F1B0FBF1F003F0A1F8B0B9FFE7019880
:103D60000F280DD8FFE701994FF0FF30002200F037
:103D700047F8019840F2AC11C2F20001086003E07C
:103D800001208DF80300FFE703E001208DF8030018
:103D9000FFE703E001208DF80300FFE79DF8030033
:103DA00002B080BD80B582B0FFE741F26000C4F28E
:103DB0000200016841F001010160006800F00100AB
:103DC00001900198FFE7FFE741F25800C4F20200BA
:103DD000016841F080510160006800F0805000905F
:103DE0000098FFE701F012FB02B080BD80B582B001
:103DF0008DF807009DF907000BF080FD02B080BD33
:103E000080B586B08DF81700049103920BF08EFDFB
:103E100002909DF91700019002980499039A05F009
:103E2000D9FA014601980BF089FD06B080BD00006B
:103E300080B582B0019001980BF0A2FD02B080BD68
:103E400082B0019001980068009001990120C1F8AA
:103E5000D0020199002081F8C802009AB2F85410EB
:103E600041F00101A2F85410009AB2F8541041F048
:103E70000201A2F8541002B07047000080B584B06F
:103E800003908DF80B109DF80B000146019120B1B5
:103E9000FFE70198012815D027E00398407A58B130
:103EA000FFE706F065FC4EF61051CEF200010868FF
:103EB00020F006000860FFE70398D0F8D80209F068
:103EC0008BF912E00398D0F8D80209F06BFA039846
:103ED000407A48B1FFE74EF61051CEF20001086873
:103EE00040F006000860FFE7FFE704B080BD000077
:103EF00084B00390ADF80A10ADF808200193BDF826
:103F00000A00000600280CD5FFE70398BDF80A1048
:103F100001F0070101EB810100EBC10010300090BE
:103F20000AE00398BDF80A1001EB810100EBC10023
:103F300000F5A8700090FFE7BDF8080038B9FFE76A
:103F400000990020087301980099C8800AE0009940
:103F500001200873019800990881BDF806000099B6
:103F60004881FFE7002004B07047000080B582B0B0
:103F700001908DF80310019AD2F8D8029DF8031031
:103F800001EB810302EBC302526A08F0DDFE02B0CE
:103F900080BD000080B582B001908DF80310019AB9
:103FA000D2F8D8029DF8031001EB810302EBC302A3
:103FB000D2F8642108F06EFF02B080BD80B584B0F5
:103FC00002908DF807109DF80700000600280FD515
:103FD000FFE702989DF8071001F0070101EB81014E
:103FE00000EBC100103000900099012048700FE0F4
:103FF00002989DF8071001F0070101EB810100EB29
:10400000C10000F5A8700090009900204870FFE7FB
:104010009DF8070000F0070000990870FFE702987C
:1040200090F89002012804D1FFE702208DF80F00DC
:1040300014E00299012081F89002FFE7FFE702985F
:10404000006800990AF012F9FFE70299002081F850
:104050009002FFE700208DF80F00FFE79DF80F00AA
:1040600004B080BD80B584B002908DF807109DF833
:10407000070000F00F0002990979884204D9FFE790
:1040800001208DF80F004DE09DF807000006002884
:104090000FD5FFE702989DF8071001F0070101EB2B
:1040A000810100EBC10010300090009901204870A0
:1040B0000FE002989DF8071001F0070101EB810164
:1040C00000EBC10000F5A870009000990020487036
:1040D000FFE70099002088709DF8070000F00700B6
:1040E00000990870FFE7029890F89002012804D127
:1040F000FFE702208DF80F0014E00299012081F8FB
:104100009002FFE7FFE70298006800990AF08EFA34
:10411000FFE70299002081F89002FFE700208DF868
:104120000F00FFE79DF80F0004B080BD80B586B09A
:1041300005900491ADF80E20BDF80E004004002853
:1041400076D5FFE705980068B0F850000499097823
:1041500000EBC100059909680844B0F802046FF348
:104160009F20ADF80C0004988069BDF80C108842BF
:1041700007D3FFE7BDF80C2004998869801A88618D
:1041800003E0049900208861FFE704988069F8B98A
:10419000FFE7FFE7059800680499097830F82100E7
:1041A0004BF68F710840ADF80A00BDF80A0080F4A4
:1041B0000050ADF80A00BDF80A0048F2800108433B
:1041C00005990968049A127821F82200FFE7FFE7B1
:1041D000BDF80E00400600281BD5FFE7FFE7FFE70C
:1041E000059800680499097830F8210048F68F7125
:1041F0000840ADF80800BDF8080048F2C0010843C7
:1042000005990968049A127821F82200FFE7FFE770
:10421000FFE7BDF80C0050B1FFE705980068049A6D
:1042200051691289BDF80C300BF016FAFFE775E002
:1042300005980068B0F850000499097800EBC100B7
:10424000059909680844B0F806046FF39F20ADF89B
:104250000C0004988069BDF80C10884207D3FFE772
:10426000BDF80C2004998869801A886103E00499DC
:1042700000208861FFE704988069F8B9FFE7FFE74D
:10428000059800680499097830F821004BF68F7181
:104290000840ADF80600BDF8060080F40050ADF807
:1042A0000600BDF8060048F2800108430599096838
:1042B000049A127821F82200FFE7FFE7BDF80E000C
:1042C000400600281BD4FFE7FFE7FFE705980068DA
:1042D0000499097830F8210048F68F710840ADF84C
:1042E0000400BDF8040048F2C001084305990968BC
:1042F000049A127821F82200FFE7FFE7FFE7BDF8F4
:104300000C0050B1FFE705980068049A5169528982
:10431000BDF80C300BF0A0F9FFE7FFE7BDF80C008B
:1043200006B080BD80B5A6B025902491ADF88E2052
:10433000BDF88E004006002840F1BA81FFE72598BD
:104340000068B0F850002499097800EBC100259965
:1043500009680844B0F802046FF39F20ADF88600A6
:1043600024988069BDF88610884207D9FFE7BDF818
:10437000862024998869801A886103E024990020A6
:104380008861FFE724988069002840F0B080FFE74B
:10439000FFE72498407808BBFFE7FFE7259800680F
:1043A000209025980068B0F850102098084420907C
:1043B00020982499097800EBC10000F202401F9078
:1043C000FFE71F9908886FF39F2008801F990888CE
:1043D00040F400400880FFE7FFE71DE024984078A4
:1043E000012818D1FFE7FFE7259800681D90259860
:1043F0000068B0F850101D9808441D901D9824992D
:10440000097800EBC10000F202401C901C990020CA
:104410000880FFE7FFE7FFE7FFE7FFE72598006871
:104420001B902498407808BBFFE7FFE725980068B9
:10443000199025980068B0F8501019980844199000
:1044400019982499097800EBC10000F206401890F1
:10445000FFE7189908886FF39F200880189908884B
:1044600040F400400880FFE7FFE718E02498407818
:10447000012813D1FFE725980068B0F850101B9869
:1044800008441B901B982499097800EBC10000F2A6
:1044900006401A901A9900200880FFE7FFE7FFE71F
:1044A000259824990978FFF761FDBDF88E00400436
:1044B00000281BD5FFE7FFE7FFE725980068249950
:1044C000097830F8210048F68F710840ADF85A009D
:1044D000BDF85A004CF28001084325990968249AD6
:1044E000127821F82200FFE7FFE7FFE7DFE0BDF8E1
:1044F0008E00400400281BD5FFE7FFE7FFE7259863
:1045000000682499097830F8210048F68F71084036
:10451000ADF85800BDF858004CF2800108432599C9
:104520000968249A127821F82200FFE7FFE7FFE7E5
:10453000249890F82400012840F0B880FFE7BDF8E7
:1045400086202499486910444861BDF88620249942
:10455000C8691044C86124980169006A884209D377
:10456000FFE7249800692290229A2499086A801A09
:10457000086216E02498006A40B9FFE7BDF886009B
:1045800022902499002081F8240009E02499002039
:1045900081F824002499096A229124990862FFE78E
:1045A000FFE7FFE724984078002856D1FFE7FFE7B0
:1045B00025980068159025980068B0F85010159857
:1045C0000844159015982499097800EBC10000F271
:1045D00002401490FFE7149908886FF39F20088029
:1045E00022983F2817D3FFE7FFE72298400913904E
:1045F0009DF88800C00620B9FFE713980138139092
:10460000FFE7139A1499088840EA822040F400409A
:104610000880FFE71EE0229830B9FFE71499088868
:1046200040F40040088014E0FFE72298400813900F
:104630009DF88800C00720B1FFE713980130139060
:10464000FFE7139A1499088840EA82200880FFE760
:10465000FFE7FFE7FFE7FFE71DE024984078012828
:1046600018D1FFE7FFE725980068129025980068A9
:10467000B0F85010129808441290129824990978B2
:1046800000EBC10000F202401190229811990880BD
:10469000FFE7FFE7FFE7FFE725980068249A5169E5
:1046A0001289BDF888300BF029F8FFE7FFE7B6E183
:1046B00025980068B0F850002499097800EBC100F3
:1046C000259909680844B0F806046FF39F20ADF8F7
:1046D000860024988069BDF88610884207D3FFE7DA
:1046E000BDF8862024998869801A886103E024999E
:1046F00000208861FFE724988069002840F0B0809E
:10470000FFE7FFE72498407808BBFFE7FFE725981D
:104710000068109025980068B0F850101098084470
:10472000109010982499097800EBC10000F2024023
:104730000F90FFE70F9908886FF39F2008800F996B
:10474000088840F400400880FFE7FFE71DE0249858
:104750004078012818D1FFE7FFE7259800680D9001
:1047600025980068B0F850100D9808440D900D98E9
:104770002499097800EBC10000F202400C900C99DA
:1047800000200880FFE7FFE7FFE7FFE7FFE7259846
:1047900000680B902498407808BBFFE7FFE7259856
:1047A0000068099025980068B0F8501009980844EE
:1047B000099009982499097800EBC10000F206409D
:1047C0000890FFE7089908886FF39F2008800899F0
:1047D000088840F400400880FFE7FFE718E02498CD
:1047E0004078012813D1FFE725980068B0F85010F1
:1047F0000B9808440B900B982499097800EBC100A2
:1048000000F206400A900A9900200880FFE7FFE7BF
:10481000FFE7259824990978FFF7A8FBBDF88E00DB
:10482000400400281BD4FFE7FFE7FFE72598006856
:104830002499097830F8210048F68F710840ADF8C6
:104840001A00BDF81A004CF2800108432599096846
:10485000249A127821F82200FFE7FFE7FFE7DDE066
:10486000BDF88E00400400281BD4FFE7FFE7FFE7F8
:10487000259800682499097830F8210048F68F714E
:104880000840ADF81800BDF818004CF2800108434C
:1048900025990968249A127821F82200FFE7FFE79A
:1048A000FFE7249890F82400012840F0B680FFE745
:1048B000BDF886202499486910444861BDF88620D7
:1048C0002499C8691044C86124980169006A884223
:1048D00009D3FFE7249800692290229A2499086A54
:1048E000801A086216E02498006A40B9FFE7BDF814
:1048F000860022902499002081F8240009E0249861
:10490000006A2290249900200862249981F82400EA
:10491000FFE7FFE7FFE725980068059024984078B7
:10492000002856D1FFE7FFE72598006803902598F7
:104930000068B0F850100398084403900398249935
:10494000097800EBC10000F206400290FFE70299EF
:1049500008886FF39F20088022983F2817D3FFE72D
:10496000FFE72298400901909DF88800C00620B911
:10497000FFE7019801380190FFE7019A0299088842
:1049800040EA822040F400400880FFE71EE02298C1
:1049900030B9FFE70299088840F40040088014E02D
:1049A000FFE72298400801909DF88800C00720B1D9
:1049B000FFE7019801300190FFE7019A029908880A
:1049C00040EA82200880FFE7FFE7FFE7FFE7FFE715
:1049D00018E024984078012813D1FFE72598006853
:1049E000B0F8501005980844059005982499097866
:1049F00000EBC10000F20640049022980499088060
:104A0000FFE7FFE7FFE725980068249A516952897C
:104A1000BDF888300AF072FEFFE7FFE7FFE7FFE727
:104A2000259800682499097830F8210048F6BF716C
:104A30000840ADF80200BDF8020080F01000ADF8AB
:104A40000200BDF8020080F02000ADF80200BDF8C1
:104A5000020048F28001084325990968249A1278D7
:104A600021F82200FFE7002026B080BD82B001902F
:104A70008DF8031001989DF8031001F0070101EB78
:104A8000810100EBC100D0F86C0102B0704700005A
:104A900080B586B004908DF80F10ADF80C208DF81D
:104AA0000B3000208DF80A009DF80F00000600284A
:104AB0000FD5FFE704989DF80F1001F0070101EBF7
:104AC000810100EBC1001030019001990120487074
:104AD0000FE004989DF80F1001F0070101EB810130
:104AE00000EBC10000F5A87001900199002048700A
:104AF000FFE79DF80F0000F0070001990870BDF86E
:104B00000C00019908619DF80B000199C8709DF88F
:104B10000B00022804D1FFE7019900200871FFE78C
:104B2000FFE7049890F89002012804D1FFE70220E3
:104B30008DF8170015E00499012081F89002FFE735
:104B4000FFE704980068019909F044F8FFE7049929
:104B5000002081F89002FFE79DF80A008DF8170009
:104B6000FFE79DF8170006B080BD000080B586B055
:104B700005908DF813100392029305989DF8131079
:104B800001F0070101EB810100EBC10000F5A87005
:104B900001900398019948610298019988610199EF
:104BA00000200090C861019948709DF8130000F042
:104BB00007000199087005980068019909F01EFE28
:104BC000009806B080BD000080B584B002908DF8DA
:104BD00007109DF8070000F0070002990979884244
:104BE00004D9FFE701208DF80F004BE09DF8070086
:104BF000000600280FD5FFE702989DF8071001F086
:104C0000070101EB810100EBC10010300090009919
:104C1000012048700DE002989DF8071001EB81011A
:104C200000EBC10000F5A8700090009900204870CA
:104C3000FFE70099012088709DF8070000F0070049
:104C400000990870FFE7029890F89002012804D1BB
:104C5000FFE702208DF80F0014E00299012081F88F
:104C60009002FFE7FFE702980068009909F082FDD3
:104C7000FFE70299002081F89002FFE700208DF8FD
:104C80000F00FFE79DF80F0004B080BD80B586B02F
:104C900005908DF813100392029305989DF8131058
:104CA00001F0070101EB810100EBC1001030019020
:104CB000039801994861029801998861019901203E
:104CC00081F824000299019A1162019A0021009151
:104CD000D161019948709DF8130000F00700019917
:104CE000087005980068019909F088FD009806B0E1
:104CF00080BD000080B582B00190019800680AF084
:104D0000A1FC00909DF801000006002804D5FFE7F3
:104D1000019804F095FBDFE09DF8010040070028B2
:104D200010D5FFE701980168B1F8440020F48060D5
:104D3000A1F84400019800F0D3F90198002100F097
:104D40000FFAC9E09DF801004006002809D5FFE7E9
:104D500001980168B1F8440020F48040A1F84400B3
:104D6000BAE09DF801008006002809D5FFE7019808
:104D70000168B1F8440020F40050A1F84400ABE011
:104D80009DF80100C00600282AD5FFE701980168B8
:104D9000B1F8400020F00400A1F84000019801683B
:104DA000B1F8400020F00800A1F84000019890F808
:104DB000C802012808D1FFE70198002180F8C81235
:104DC0000198FFF75BF8FFE7019800F0A5F901985B
:104DD0000168B1F8440020F48050A1F844007BE061
:104DE0009DF80100000700281CD5FFE70198016825
:104DF000B1F8400040F00800A1F8400001980168B7
:104E0000B1F8440020F40060A1F844000198016862
:104E1000B1F8400040F00400A1F84000019800F013
:104E200003FA59E09DF800000006002834D5FFE79A
:104E300001980168B1F8440020F08000A1F8440016
:104E4000019890F8C80210BBFFE701980168B1F81B
:104E5000400040F00400A1F8400001980168B1F85A
:104E6000400040F00800A1F840000198012180F8BE
:104E7000C81201980068B0F8540000F0F0008008F3
:104E8000019AC2F8CC020198FEF7F8FF03E00198FE
:104E900000F0CAF9FFE71FE09DF801008007002835
:104EA0000CD5FFE701980168B1F8440020F40070C8
:104EB000A1F84400019800F049F90DE09DF80100C7
:104EC000C00748B1FFE701980168B1F8440020F439
:104ED0008070A1F84400FFE702B080BD80B584B0C7
:104EE0000290029820B9FFE701208DF80F00BBE087
:104EF000029890F8910240B9FFE70299002081F8EA
:104F00009002029800F0B4F8FFE70299032081F8BC
:104F100091020298006809F079FB00208DF80700E3
:104F2000FFE79DF8070002990979884239DAFFE71F
:104F300002989DF8071001EB810100EBC1010120EF
:104F400048749DF80700029900EB800201EBC20152
:104F5000087402989DF8071001EB810100EBC10174
:104F60000020C87402999DF8072002EB820201EB31
:104F7000C201086202999DF8072002EB820201EB50
:104F8000C201486202999DF8072002EB820201EB00
:104F9000C2018862FFE79DF8070001308DF8070025
:104FA000BFE700208DF80700FFE79DF80700029992
:104FB000097988423EDAFFE702989DF8071001EB75
:104FC000810100EBC101002081F851019DF807101B
:104FD000029A01EB810302EBC30282F8501102999D
:104FE0009DF8072002EB820201EBC20181F8530118
:104FF00002999DF8072002EB820201EBC201C1F881
:10500000600102999DF8072002EB820201EBC201C8
:10501000C1F8640102999DF8072002EB820201EBBE
:10502000C201C1F86801FFE79DF8070001308DF863
:105030000700BAE7029A10685168926809F0D2FA3C
:105040000299002008730299012081F891020298C8
:10505000807A012804D1FFE70298FEF7F1FEFFE70E
:1050600000208DF80F00FFE79DF80F0004B080BD11
:1050700080B598B0179002A85421FBF7B5F917989E
:10508000006845F60041C4F20001884226D1FFE7DE
:105090004FF4005002900020119002A800F0C0F9D7
:1050A00018B1FFE7FBF796FEFFE7FFE741F2580074
:1050B000C4F20200016841F400010160006800F4DC
:1050C000000001900198FFE7142000900022114693
:1050D000FEF796FE0098FEF789FEFFE718B080BD48
:1050E00080B582B0019001208DF8030001984079CD
:1050F000022803D0FFE7FBF76DFEFFE70198D0F829
:10510000D8029DF8031008F0A1F80198D0F8D80251
:1051100008F012F802B080BD80B582B0019001980D
:10512000407A58B1FFE74EF61051CEF20001086800
:1051300020F00600086005F01BFBFFE70198D0F89F
:10514000D80208F049F802B080BD000080B582B0F6
:1051500001900198D0F8D80208F050F802B080BD54
:1051600080B584B002908DF80710FFE7029890F8A0
:105170009002012804D1FFE702208DF80F0019E00A
:105180000299012081F89002FFE7FFE79DF80700F0
:1051900002990873029800689DF807100AF09EFAB9
:1051A000FFE70299002081F89002FFE700208DF8C8
:1051B0000F00FFE79DF80F0004B080BD80B582B0FE
:1051C00001900199D1F8D80201F5267108F068F82C
:1051D00002B080BD80B582B00090FFE7009890F8E3
:1051E0009002012804D1FFE702208DF8070017E0A4
:1051F0000099012081F89002FFE7FFE7009800681E
:105200000AF008FA0098006809F0E0F9FFE7009951
:10521000002081F89002FFE700208DF80700FFE7EB
:105220009DF8070002B080BD80B582B00190019862
:10523000D0F8D80208F0B6F80198407A48B1FFE7F4
:105240004EF61051CEF20001086840F006000860EA
:10525000FFE702B080BD000085B0039003980028EE
:105260005ED1FFE747F20000C4F20000006800F4DE
:10527000C060B0F5806F49D1FFE747F28001C4F20A
:105280000001086820F48070086047F20002C4F250
:1052900000021168012060F34A21116040F22001F0
:1052A000C2F200010968322251434DF68362C4F212
:1052B0001B32A1FB022100EB91400290FFE747F275
:1052C0001400C4F200000168002049050029019083
:1052D00006D5FFE70298002818BF01200190FFE7DC
:1052E0000198C00720B1FFE7029801380290E6E775
:1052F00047F21400C4F2000000684005002804D5FD
:10530000FFE703208DF813007CE008E047F28001FE
:10531000C4F20001086820F480700860FFE76DE0C7
:105320000398B0F5007F5ED1FFE747F20000C4F2BA
:105330000000006800F4C060B0F5806F49D1FFE75D
:1053400047F28001C4F20001086840F480700860F0
:1053500047F20002C4F200021168012060F34A2102
:10536000116040F22001C2F200010968322251436B
:105370004DF68362C4F21B32A1FB022100EB914087
:105380000290FFE747F21400C4F200000168002019
:1053900049050029009006D5FFE70298002818BFAC
:1053A00001200090FFE70098C00720B1FFE70298B6
:1053B00001380290E6E747F21400C4F200000068EA
:1053C0004005002804D5FFE703208DF8130019E0FD
:1053D00008E047F28001C4F20001086840F48070E0
:1053E0000860FFE709E047F20001C4F20001086825
:1053F000022262F34A200860FFE7FFE700208DF8F1
:105400001300FFE79DF8130005B0704747F208014D
:10541000C4F20001086840F4804008607047000052
:1054200080B586B0059000208DF80B008DF80A003D
:10543000059880780007002840F1B580FFE700203C
:105440008DF8090041F25800C4F202000068C00063
:10545000002813D4FFE7FFE741F25800C4F202002E
:10546000016841F080510160006800F080500190B7
:105470000198FFE701208DF80900FFE747F20001DE
:10548000C4F20001086840F480700860FEF71AFC5E
:105490000390FFE747F20000C4F200000068C00577
:1054A00000280CD4FFE7FEF70DFC0399401A0328EF
:1054B00004D3FFE703208DF80B0000E0EAE79DF836
:1054C0000B0000285BD1FFE741F29000C4F202001C
:1054D000006800F4407004900498C8B1FFE7049895
:1054E0000599096D884213D0FFE741F29001C4F29B
:1054F0000201086820F440700490086840F480308D
:105500000860086820F48030086004980860FFE7AD
:105510009DF81000C007E0B1FFE7FEF7D3FB039052
:10552000FFE741F29000C4F2020000688007002803
:105530000ED4FFE7FEF7C6FB0399401A41F289310A
:10554000884204D3FFE703208DF80B0000E0E8E772
:10555000FFE79DF80B0060B9FFE741F29001C4F24C
:105560000201086820F44070059A126D104308602B
:1055700004E09DF80B008DF80A00FFE704E09DF8B9
:105580000B008DF80A00FFE79DF80900012809D1FA
:10559000FFE741F25801C4F20201086820F0805090
:1055A0000860FFE7FFE705980078C00760B1FFE7F4
:1055B00041F28801C4F20201086820F00300059A54
:1055C000526810430860FFE70598007880070028BC
:1055D0000CD5FFE741F28801C4F20201086820F00F
:1055E0000C00059A926810430860FFE70598007860
:1055F000400700280CD5FFE741F28801C4F2020100
:10560000086820F03000059AD26810430860FFE770
:1056100005980078000700280CD5FFE741F28801C3
:10562000C4F20201086820F0C000059A1269104314
:105630000860FFE705980078C00600280CD5FFE752
:1056400041F28801C4F20201086820F44070059A12
:10565000526910430860FFE705980078800600282B
:105660000CD5FFE741F28801C4F20201086820F47A
:105670004060059A926910430860FFE7059800783A
:10568000400600280CD5FFE741F28801C4F2020170
:10569000086820F44050059AD26910430860FFE77B
:1056A00005980078000600280CD5FFE741F2880134
:1056B000C4F20201086820F44040059A126A1043BF
:1056C0000860FFE705984078C00760B1FFE741F246
:1056D0008801C4F20201086820F44030059A526A39
:1056E00010430860FFE705988078800700280CD5F4
:1056F000FFE741F29C01C4F20201086820F00300B8
:10570000059A926A10430860FFE705984078800781
:1057100000280CD5FFE741F28801C4F202010868B5
:1057200020F44020059AD26A10430860FFE70598EC
:105730004078400700281BD5FFE741F28801C4F2FA
:105740000201086820F44010059A126B10430860AB
:105750000598006BB0F5801F09D1FFE741F20C01FD
:10576000C4F20201086840F480100860FFE7FFE718
:1057700005984078000700281BD5FFE741F2880113
:10578000C4F20201086820F44000059A526B1043ED
:1057900008600598406BB0F5800F09D1FFE741F232
:1057A0000C01C4F20201086840F480100860FFE7B1
:1057B000FFE705984078C00600281BD5FFE741F2B7
:1057C0008801C4F20201086820F04070059A926BCB
:1057D000104308600598806BB0F1807F09D1FFE726
:1057E00041F20C01C4F20201086840F48010086024
:1057F000FFE7FFE705984078800600281BD5FFE704
:1058000041F28801C4F20201086820F04060059A64
:10581000D26B104308600598C06BB0F1006F09D1DE
:10582000FFE741F20C01C4F20201086840F4801065
:105830000860FFE7FFE705984078400600281BD581
:10584000FFE741F28801C4F20201086820F04060DD
:10585000059A126C104308600598006CB0F1006F57
:1058600009D1FFE741F20C01C4F20201086840F4DB
:1058700080100860FFE7FFE70598407800060028E1
:105880001BD5FFE741F28801C4F20201086820F04D
:105890004050059A526C104308600598406CB0F176
:1058A000805F09D1FFE741F20C01C4F202010868F0
:1058B00040F480300860FFE7FFE705988078C00774
:1058C000D8B1FFE741F28801C4F20201086820F074
:1058D0004040059A926C104308600598806CB0F1C6
:1058E000804F09D1FFE741F20C01C4F202010868C0
:1058F00040F480300860FFE7FFE7059880784007B4
:1059000000281BD5FFE741F29C01C4F202010868A0
:1059100020F44010059AD26C104308600598C06CC2
:10592000B0F5001F09D1FFE741F20C01C4F20201FA
:10593000086840F480100860FFE7FFE79DF80A0060
:1059400006B080BD80B586B0049003910020009021
:10595000049820B9FFE701208DF8170081E1039832
:1059600042F20001C4F20201096801F00F0188420D
:1059700016D9FFE742F20000C4F20200016821F0EC
:105980000F01039A11430160006800F00F000399B2
:10599000884204D0FFE701208DF8170061E1FFE79E
:1059A00004980078C007002800F0A380FFE704985F
:1059B0004068032839D1FFE741F20000C4F2020039
:1059C00000688001002804D4FFE701208DF817004B
:1059D00047E104F003FA019001984BF20141C0F253
:1059E000C441884220D3FFE741F20800C4F202001C
:1059F000006810F0F00F0AD0FFE7049800788007E5
:105A0000002810D5FFE70498806860B9FFE741F2ED
:105A10000801C4F202010868082262F30710086056
:105A200080200090FFE7FFE738E0049840680228F4
:105A30000ED1FFE741F20000C4F2020000688003CB
:105A4000002804D4FFE701208DF8170009E10DE0DC
:105A500041F20000C4F2020000684005002804D4AE
:105A6000FFE701208DF81700FBE0FFE700F02CF9BD
:105A7000019001984BF20141C0F2C44188420CD31D
:105A8000FFE741F20801C4F202010868082262F34C
:105A90000710086080200090FFE7FFE741F208014F
:105AA000C4F20201086820F00300049A526810430F
:105AB0000860FEF707F90290FFE741F20800C4F220
:105AC0000200006800F00C0004994968B0EB810FF7
:105AD0000ED0FFE7FEF7F6F80299401A41F289313D
