:020000040800F2
:1000000088260020D50200088D9C0008B18D0008CC
:10001000899C0008C912000891F500080000000042
:1000200000000000000000000000000079AA0008A5
:100030003D1800080000000015A5000829B00008C0
:10004000EF020008EF020008EF020008EF020008CC
:10005000EF020008EF020008EF020008EF020008BC
:10006000EF020008EF020008EF020008EF020008AC
:100070006D1700087D170008EF020008EF02000866
:10008000EF020008EF02000861110008EF0200080B
:100090004DF40008EF020008EF020008EF0200082C
:1000A000EF020008EF020008EF020008EF0200086C
:1000B000C5B00008EF020008EF020008EF020008D8
:1000C000EF020008EF020008EF02000835A7000861
:1000D000EF020008EF020008EF020008EF0200083C
:1000E000EF020008EF020008EF020008EF0200082C
:1000F000EF020008EF020008EF020008EF0200081C
:10010000EF020008EF020008EF020008EF0200080B
:10011000EF020008EF020008EF020008EF020008FB
:10012000EF020008EF020008EF020008EF020008EB
:10013000EF020008EF020008EF020008EF020008DB
:10014000EF020008EF020008EF020008EF020008CB
:10015000EF020008EF020008EF020008EF020008BB
:10016000EF020008EF020008EF020008EF020008AB
:10017000EF020008EF020008EF020008EF0200089B
:10018000EF020008EF020008EF020008EF0200088B
:10019000EF02000800000000EF020008EF02000874
:1001A000EF020008EF020008EF020008EF0200086B
:1001B000EF020008EF020008EF020008EF0200085B
:1001C000EF020008EF020008EF020008EF0200084B
:1001D000EF020008EF02000800F002F800F06AF8F1
:1001E0000AA090E8000C82448344AAF10107DA4592
:1001F00001D100F05FF8AFF2090EBAE80F0013F07A
:10020000010F18BFFB1A43F001031847401A010001
:10021000601A01000A444FF0000C10F8013B13F083
:10022000070408BF10F8014B1D1108BF10F8015B4F
:10023000641E05D010F8016B641E01F8016BF9D142
:1002400013F0080F1EBF10F8014BAD1C0C1B09D199
:100250006D1E58BF01F801CBFAD505E014F8016B0B
:1002600001F8016B6D1EF9D59142D6D3704700009D
:100270000023002400250026103A28BF78C1FBD8AF
:10028000520728BF30C148BF0B6070471FB511F03F
:100290000EFB00F09BFC04000020002110F0F8FE93
:1002A000401C60600020002110F0DCFEE0601FBDFB
:1002B00010B510BD00F096F91146FFF7E7FF0FF0FB
:1002C000B1FC00F039FC03B4FFF7F2FF03BC00F00F
:1002D00031FF00000948804709480047FEE7FEE774
:1002E000FEE7FEE7FEE7FEE7FEE7FEE7FEE7FEE7E6
:1002F00004480549054A064B70470000B1B00008A4
:10030000D9010008882000208826002088220020AB
:100310008822002030B505460B462A4613F8014BCB
:1003200012F8010B08B1A042F8D01CB1002802D08D
:100330006D1CF1E7284630BD10B5431C02E010F8F3
:10034000011B71B18107FAD14FF0013202C88C1A3A
:100350008C4314EAC211F9D0C01A0A0603D0C01E99
:1003600010BDC01A10BD0A0401D0801E10BD0902C4
:10037000FCD0401E10BD032A40F2308010F0030C68
:1003800000F0158011F8013BBCF1020F624498BFE8
:1003900011F801CB00F8013B38BF11F8013BA2F185
:1003A000040298BF00F801CB38BF00F8013B11F000
:1003B000030300F0B380083AC0F0088051F8043B12
:1003C000083A51F804CBA0E80810F5E7121D5CBF0D
:1003D00051F8043B40F8043BAFF30080D20724BF40
:1003E00011F8013B11F801CB48BF11F8012B24BFD4
:1003F00000F8013B00F801CB48BF00F8012B704723
:100400004FF0000200B5134694469646203922BFAD
:10041000A0E80C50A0E80C50B1F12001BFF4F7AFF8
:10042000090728BFA0E80C5048BF0CC05DF804EBDA
:10043000890028BF40F8042B08BF704748BF20F848
:10044000022B11F0804F18BF00F8012B7047704746
:100450007047704710B500F093F8006810BD10B5F4
:10046000044600F08DF8046010BD00000FB40B00CE
:1004700010B54FF000048AB00FA900910E99CC601E
:10048000234C7C44234A7A44CDE9064200D004231D
:100490006FF00042CDE901321F4A7A446B46089260
:1004A0000246002011F023FB0AB010BC5DF814FBDB
:1004B000F0B507464FF0FF301E4615460C463B464A
:1004C00085B06A460091CDE90101314600200490D3
:1004D00004A8FFF7CBFF04990346601825B109B1C2
:1004E000024600E022462A6000290ED0002B02DDE1
:1004F0000099814209D03B466A463146001B009470
:10050000CDE9010404A8FFF7B1FF05B0F0BD00007C
:10051000150100002F010000EB00000010B5203A8B
:10052000C0F00B80B1E81850A0E81850B1E818509E
:10053000A0E81850203ABFF4F5AF5FEA027C24BF70
:10054000B1E81850A0E8185044BF18C918C0BDE859
:1005500010405FEA827C24BF51F8043B40F8043B22
:1005600008BF7047D20728BF31F8023B48BF11F8D7
:10057000012B28BF20F8023B48BF00F8012B704731
:1005800000487047A801002010B5044600F050F85C
:100590000068005D00F0010010BD426842B10168D2
:1005A00011F8013B23B1521EC0E9001218467047F2
:1005B0000121C160881E704742685AB1C368016852
:1005C00043B983688B4205D0491E521CC0E9001212
:1005D000002070474FF0FF30704700000048704720
:1005E000A80100207546FFF7F9FFAE4605006946F1
:1005F000534620F00700854618B020B5FFF778FE77
:10060000BDE820404FF000064FF000074FF0000813
:100610004FF0000BAC46ACE8C009ACE8C009ACE850
:10062000C009ACE8C00921F007018D467047000001
:1006300010B500F0CBFA001D10BD00BF550A010037
:100640002DE9FF4F06468BB00878FF2806D0491CDD
:100650002D2805D000244FF0000908E000200CE010
:100660000124F8E709EB8903491C00EB43090878EA
:10067000FF28F7D114B1C9F1000081461078002598
:100680002C46AA4629462D2801D02B2804D1521CDD
:100690002D2813D0002082468B461078FF280FD0DB
:1006A0004FF0000C0A21521CA5FB017804FB0181CC
:1006B00005FB0C11C5194BEB0104EEE70120EAE73D
:1006C000002108464FF00000BAF1000F02D000EB05
:1006D00080004008C0F38157012F01DD4FF0FF3744
:1006E0000E9955EA040009EB01080BD04FF00209FE
:1006F00018F5FA7F16DA4FEACA70002F706008DD2D
:10070000012007E04FEACA70C6E900B00FB0BDE8AB
:10071000F08F00203060FFF733FFC0F80090182101
:10072000084616E0B8F5FA7F18DD002F02DAF74820
:10073000784401E0F6487844D0E90010C6E900109A
:1007400040EACA707060FFF71BFFC0F800901421E8
:1007500008460FB0BDE8F04F11F066B90021084619
:100760004FF00000B8F10001099002DAC7F1000271
:1007700000E03A4601DAC8F1000106A800F03EFAAE
:1007800006AB93E8070003AB83E8070044F23E00A2
:100790005BEA04010090584604D144F21E012C4645
:1007A0005D460091210C0904014306D100992404FF
:1007B00044EA15442D041039009104F07F410143AF
:1007C00006D10099240244EA15642D0208390091EB
:1007D00004F07041014306D10099240144EA1574E4
:1007E0002D01091F009104F04041014306D10099F9
:1007F000A40044EA9574AD00891E009104F0004104
:10080000084304D100986D196441401E00904FF0D8
:1008100001033A466846B8F1000FCDE9014503A946
:1008200002DD0FF078FE01E00FF04BFEBAF1000F91
:1008300004460D4601D084F00044002108464FF0E4
:100840000000099940F2FF77484010F00C0F07D1E3
:1008500024F00040284303D0C4F30A50B84212D118
:10086000FFF78EFEC0F80090C4F30A50B8420AD1D8
:10087000A8487844D0E90010C6E9001004F000410F
:100880000843706042E7C6E900543FE72DE9FF4F97
:100890001F464FF0000A4FF0FF38454691B0D7E9A8
:1008A0000146CDF83CA000F091F9C0680168405CB9
:1008B0001090B96912986D1C8847396A814688473B
:1008C0000028F6D1B9F1FF3F0AD0002E24F4D064FD
:1008D00011DDB9F12B0F08D0B9F12D0F0BD102E0CA
:1008E000404615B013E744F48064B96912986D1C52
:1008F0008847761E8146600504A901D52D2000E0B9
:100900002B20002E01F1010B0DF130088DF81000A5
:100910003FDDB9F1690F08D0B9F1490F05D0B9F140
:100920006E0F02D0B9F14E0F1CD13B4601A80095C5
:1009300080E85002DDE912126FF0020011F0DBF8DE
:10094000C11CCED10EE0B96912986D1C8847814652
:100950001398761E44F4007405600F98401C002E16
:100960000F9016DDB9F1300FEDD0B9F1780F02D04C
:10097000B9F1580F0DD10F9801280AD13B46CDE9A6
:100980000054DDE91212001F029611F0B2F8C11CEA
:10099000A7D1109989453ED144F0800406E013990F
:1009A000681CAAF1010A44F400740860B9696D1C5E
:1009B0001298761E884730288146F0D02BE0109997
:1009C000894505D1200603D4761E44F0800418E042
:1009D000484610F0F7FA08B3761E0DF1230293454E
:1009E000A9F1300044F4007406D20BF8010B200684
:1009F00007D5AAF1010003E0200602D40AF10100A4
:100A00008246A00502D51399681C0860B96912983E
:100A10006D1C88478146002ED1DC53E0002E51DD4D
:100A2000B9F1650F02D0B9F1450F4BD1A00549D5F9
:100A3000B9696D1C1298761E24F440748847002E04
:100A400081460CDD2B2804D0B9F12D0F07D144F4D9
:100A50008074B96912986D1C8847761E8146E0053E
:100A600001D52D2100E02B2108F8011BCDF80080D5
:100A700021E0761E0DF13901884544F400740CD252
:100A8000A9F1300010F0FF0088F8000002D10099B1
:100A9000884509D908F1010806E0E00501D51E489E
:100AA00001E042F20F708246B96912986D1C8847C6
:100AB000814613980560002E04DD484610F082FA46
:100AC0000028D6D1F96912988847FF2053468BF841
:100AD000000088F8000000200A900B9004AA0CA9DE
:100AE0000AA8FFF7ADFDA00502D46FF00100F8E6FB
:100AF00014F0240F12D0E0071CD13868DDE90A1287
:100B0000031D3B600068C0E9001213E040150100BE
:100B100032150100F6130100F1D8FFFF0AA968465B
:100B200010F092F9E00705D13868009A011D39608C
:100B3000006802602846D4E610B50446AFF3008092
:100B40002046BDE81040FFF7BEBB000000000000DB
:100B500030B44FF0013C50F8042B51F8043BCCFA70
:100B600052F4D51A20D1FCB950F8042B51F8043BAB
:100B7000CCFA52F4D51A17D1B4B950F8042B51F865
:100B8000043BCCFA52F4D51A0ED16CB950F8042BB0
:100B900051F8043BCCFA52F4D51A05D1002CDAD026
:100BA00030BC4FF00000704729BAB1FA81F111F062
:100BB0001801D1F120008440F2D1CA40CB4012F09C
:100BC000FF0213F0FF0330BCD01A70470048704793
:100BD000C8010020B2F120030AD5C2F1200301FAB6
:100BE00002F120FA03F341EA030100FA02F0704730
:100BF00000FA03F14FF00000704700002DE9F047C4
:100C0000814616468AB0354878440DC88DE80D00F7
:100C100032487844801C03AC0DC884E80D0041F6CE
:100C20009B300844372190FBF1F290FBF1F5A5F1E0
:100C3000800501FB12041B3C02D56442012000E048
:100C40000020DFF898A080460027FA44AAF1BE0AE7
:100C50000EE0E0070AD03246684607EB4701012361
:100C60000AEB81010FF042FC8DE8070064107F1C45
:100C7000002CEED1194F7F44AE3F19E0E80715D0A4
:100C800007EB04100DF1180A90E80E008AE80E0038
:100C9000C068F04201D1981908903246012306A994
:100CA00003A80FF023FC03AB83E807006D10641C5E
:100CB000002DE3D14FF0010332466946B8F1000F31
:100CC00003A802D00FF0E8FB01E00FF00FFCC9E928
:100CD0000001C9F808200AB0BDE8F087BC0F010088
:100CE0002DE9FF4F1F464FF03C0987B04FF00042FF
:100CF000DDE9141001F10108DDF858A002EA4050C6
:100D00000390002005908346054604460490B96987
:100D1000461E08988847AAF1010A0290BAF1000F0E
:100D20003BDD02982E2815D0102100F009FA00288A
:100D30002EDB4FF0010B0599014317D0B9F1000FDD
:100D40000BDB4A46C117FFF745FF05430C43A9F1EA
:100D5000040905E0012004900BE008B145F001050D
:100D600001200590049820B9361D02E0049800B1D6
:100D7000361FB969089808F101088847BBF1000FD0
:100D8000AAF1010A0290C9D00999C1F80080C5E70B
:100D90000298702808D0502806D0F969089888472A
:100DA000BBF1000F14D04FE0002002900120BBF1F6
:100DB000000F049009D0B969089808F10108884724
:100DC000AAF10109B9F1000F07DCF9690898884711
:100DD0006FF001000BB0BDE8F08F2B2804D02D2858
:100DE0000CD14FF0FF300490B969089808F1010860
:100DF0008847A9F10109B9F1000FE6DD411CE4D0F3
:100E00000A2100F09DF90028DFDB029908F10108B2
:100E100001EB810100EB41000290B9690898884715
:100E20000A2100F08DF9099AA9F10109B9F1000F21
:100E3000C2F8008001DD0028E7DAF96908988847E0
:100E40000499029800FB016655EA040004D004F0FE
:100E50004041090002D006E0039898E0A40044EA6B
:100E60009574AD00B61E04F00041080002D16D1962
:100E70006441761E159810F0240F03D04FF00B0933
:100E80005C4803E04FF028096FF07D00824656452C
:100E900007DAAAEB06018944B9F1410F01DD4FF0F1
:100EA000410901200021A9F10102FFF793FE02464A
:100EB00028400B462140084301D0012100E00021D9
:100EC000501E029143F1FF3128402140084301D0D8
:100ED000012000E000200299834651EA0B014FD027
:100EE000002108464FF00000039900F4400039B19A
:100EF00000EB80004FF4400100EBD07001EA60008D
:100F00008015012802DD4FF0FF3000E013D0401CB7
:100F100036D0029860B3BBF1000F0CD14A460120D5
:100F20000021FFF757FE28402140084301D001204F
:100F300000E00020E0B101204A460021FFF74AFE10
:100F4000034640190A4661412D1A8C4111D3B9F16B
:100F5000400F09DD159810F0240F02D0AAF13406D5
:100F600003E0AAF1170600E0761C00254FF00044CC
:100F700006E05B1E42F1FF3220EA030521EA02048B
:100F8000CAF10100B04206DA1B49039808430190F8
:100F9000002000900EE0039AC4F3D321E80A0A432C
:100FA000164940EA44500A433146CDE900026846FA
:100FB0000FF0FEFF159810F0240F0BD01598C00706
:100FC00015D13868DDE90012031D3B600068C0E9F7
:100FD00000120CE002A869460FF036FF1598C00712
:100FE00005D13868029A011D3960006802604046E8
:100FF000F0E6000002FCFFFF0000F07F0000F03F81
:101000002DE9FF4F92461D4685B04FF00041DDE9C6
:10101000124BDDE914727F1E01EA4B50414940F04A
:10102000FF4940EA0108002122F0200049280491EC
:1010300002D04E2828D04CE03BA0012607C88DE8FE
:101040000700A9690698641C88477F1E014606D4DC
:101050001DF8060018B121F0200181420BD0E9698A
:1010600006988847032E34D0082E32D06FF0010046
:1010700009B0BDE8F08F761C032E01D0082EE0D118
:10108000601CCAF80000DCE7A9690698641C884760
:101090007F1E2AD420F02000412826D1A969069875
:1010A000641C88477F1E20D420F020004E281CD1CD
:1010B000A9690698641C88477F1E48F4002849F4F3
:1010C0008009CAF8004001D4282806D0E9690698AA
:1010D00088475FEACB7012D022E0A9690698641CA9
:1010E00088477F1E01D4002803DAE96906988847FB
:1010F000BCE72928F1D1641CCAF80040E9E71BF0DD
:10110000240F07D028680499031D2B600068C0E9EC
:10111000001805E02868021D2A600068C0F80090E9
:101120002046A5E70000F07F494E46494E495459F4
:101130000000000001491820ABBEFEE726000200B7
:101140003A2800D2303820F02002412A01D3A2F1FF
:101150003700884201D34FF0FF30704770470000DE
:1011600080B541F64420C2F2000002F0ABFA41F62D
:10117000B020C2F2000002F0A5FA80BD80B586B0B2
:101180000490002002900498006807F03DFF0028BA
:1011900040F09280FFE70498006880683F21C8F221
:1011A000000108420ED0FFE70499C86D40F010001E
:1011B000C8650499086E40F00100086601208DF8AA
:1011C00017007DE00498006807F07EFE049801682F
:1011D0000120B1F1A04F01900CD0FFE70498006806
:1011E0004FF60071CAF6FF710844B0FA80F040096A
:1011F0000190FFE70198C10740F20070C5F20000BE
:1012000000291CBF40F20030C5F2000007F07AFE52
:101210004FEA002000281CD5FFE740F22000C2F270
:1012200000000068800942F66351C0F23E51A0FB05
:101230000110800900EB40010C2000EB81000290BE
:10124000FFE7029820B1FFE7029801380290F8E723
:10125000FFE703F067FB0390FFE70498006800686E
:10126000C00740BBFFE70498006807F0CDFE28B92F
:10127000FFE70498006807F027FEFFE703F052FB42
:101280000399401A032815D3FFE704980068006803
:10129000C00770B9FFE70499C86D40F01000C86539
:1012A0000499086E40F00100086601208DF81700CF
:1012B00006E0FFE7D1E7FFE700208DF81700FFE722
:1012C0009DF8170006B080BDFFE7FEE784B08DF8FB
:1012D0000F000291ADF806209DF80F000146009125
:1012E00023281DD80099DFE801F012131415161BEE
:1012F0001B1B1B1B1B1B1B1B1B1B1B1B1B1B1B1B3E
:101300001B1B1B1B1B1B1B1B1B1B1718191A08E085
:1013100007E006E005E004E003E002E001E000E0B1
:10132000FFE7002004B070470020704780B582B00E
:1013300041F27470C2F20000009040F61471C2F2E3
:101340000001002201920AF031FF009840F214716E
:10135000C2F200010AF010FF019802B080BD000047
:1013600080B584B003900291039941F27470C2F287
:10137000000001900AF000FF01980AF0A7FE039810
:101380000299098800F014F8039802990EF0DAFD2A
:10139000002004B080BD000083B0029001918DF860
:1013A000032000208DF802009DF9020003B0704771
:1013B00080B586B00490ADF80E1000208DF80D00B9
:1013C00041F27470C2F20000D0F8BC0202900298A0
:1013D000D0F8140220B1FFE701208DF8170013E0C8
:1013E0000499BDF80E2041F27470C2F20000019021
:1013F0000AF0DCFE01980AF0C7FF8DF80D009DF899
:101400000D008DF81700FFE79DF8170006B080BDAE
:1014100082B00190009101980068009908600198DD
:1014200090ED000A90ED011A31EE011A30EE010A3A
:101430009FED041A80EE010A009880ED010A02B0C7
:10144000704700BFD7B3DD3F80B586B00590002060
:101450000290FFE702980F2846DCFFE7012003F027
:1014600075F841F64420C2F200000190092101F014
:10147000ABF901460198059A118040F20F1101F075
:10148000A3F901460198059A518040F2152101F017
:101490009BF901460198059A918040F21B3101F0B9
:1014A00093F90599C88605980188BDF8120008448B
:1014B000ADF8120005984188BDF810000844ADF859
:1014C000100005988188BDF80E000844ADF80E00A4
:1014D0000598C18EBDF80C000844ADF80C00FFE77C
:1014E000029801300290B5E7BDF912000009059994
:1014F0000886BDF91000000905994886BDF90E005F
:10150000000905998886BDF90C0000090599C8866F
:1015100006B080BD80B588B041F22C70C2F20000E8
:10152000049000F0A7F840F20040C4F600000090DC
:101530004FF480610191012203F0DEF907F040FFD2
:101540009FED4A1A20EE010A9FED491A80EE010A2A
:1015500041F6C070C2F20000059080ED000A90EDE7
:10156000000AF1EE0C0A08F061FB00980199059A57
:1015700082ED020A002203F0BFF904998A6840F262
:101580008C20C2F200000260C968416040F29421E0
:10159000C2F200010291FFF73BFF0298049B0599FC
:1015A00002689A614268DA6191ED020A40F29C2178
:1015B000C2F20001039108F06DFF039904980A68D4
:1015C00002624968416241F27071C2F20001096829
:1015D000816240F29011C2F200010968C162D0ED4F
:1015E000080A90ED0A0A40F20820C2F2000008F052
:1015F00093FF049842F26401C2F20001079181ED69
:10160000060AD0ED090A90ED0B0A40F22820C2F23A
:10161000000008F081FF0599079A82ED070A936997
:1016200041F21C70C2F200000360D269426091ED89
:10163000020A41F21471C2F20001069107F0F6FBB2
:10164000069907980A6802614968416190ED040AA9
:10165000D0ED050A40F2A420C2F20000B2EE081A52
:1016600009F0B2FA08F0CAFE08B080BDDB0FC9402D
:101670000000804680B582B0019041F64420C2F25D
:1016800000000090092101F09FF801460098019A9E
:10169000118040F20F1101F097F801460098019A6D
:1016A000518040F2152101F08FF801460098019A0F
:1016B000918040F21B3101F087F80199C8800198B0
:1016C000B0F90010B0F93020891A00EE101AB8EE07
:1016D000C00A9FED233A20EE030A9FED222A80EEF6
:1016E000020A9FED211A80EE010A80ED020A01989C
:1016F000B0F90210B0F93220891A00EE101AB8EED3
:10170000C00A20EE030A80EE020A80EE010A80ED94
:10171000030A0198B0F90410B0F93420891A00EED8
:10172000101AB8EEC00A20EE030A80EE020A80EE1C
:10173000010A80ED040A0198B0F90610B0F93620CC
:10174000891A00EE101AB8EEC00A20EE030A80EEE5
:10175000020A80EE010A80ED050A02B080BD00BFDA
:101760003333534000008045CCCCCC3D80B541F6AE
:101770001C30C2F2000002F091FD80BD80B541F640
:101780007C30C2F2000002F089FD80BD84B003907D
:101790000398006840F20741C4F20201884206D86B
:1017A000FFE740F60000C4F20200009005E040F6BA
:1017B0002000C4F202000090FFE700980290039816
:1017C000007808384CF6CD41CCF6CC41A0FB011096
:1017D00000090190029803994A6C22F00302104418
:1017E0008864039940F68000C4F20200C86401983E
:1017F00000F01F01012088400399086504B070477C
:1018000082B00190019800790090009940F6FC00A8
:10181000C4F2020000EB810001994865019940F68D
:101820004010C4F2020088650098013800F01F01E2
:10183000012088400199C86502B0704770470000D8
:1018400080B586B041F22C70C2F20000FFF712FFA3
:1018500041F6C070C2F2000090ED030A90ED041A48
:1018600030EE010A80ED030A90ED030A9FED4F1A56
:10187000B4EE410AF1EE10FA07DDFFE741F6C07160
:10188000C2F200010020C86016E041F6C070C2F24A
:10189000000090ED030AB5EE400AF1EE10FA0ADA04
:1018A000FFE741F6C071C2F2000140F6DB70C4F2FE
:1018B000C900C860FFE7FFE741F22C71C2F20001E6
:1018C00002918A6840F28C20C2F200000260C9686E
:1018D000416040F29421C2F200010091FFF798FDAF
:1018E0000098029A016891614168D16141F6C07126
:1018F000C2F20001039191ED030A40F29C21C2F271
:101900000001019108F0C6FD019902980A6802627F
:1019100049684162002181624FF08041C162D0ED8F
:10192000080A90ED0A0A40F20820C2F2000008F00E
:10193000F3FD029842F26401C2F20001059181EDCB
:10194000060AD0ED090A90ED0B0A40F22820C2F2F7
:10195000000008F0E1FD0399059A82ED070A9369FA
:1019600041F21C70C2F200000360D269426091ED46
:10197000030A41F21471C2F20001049107F056FA11
:10198000049905980A6802614968416190ED040A6A
:10199000D0ED050A40F2A420C2F20000B2EE081A0F
:1019A00009F012F908F02AFD06B080BDDB0FC9402E
:1019B00080B582B042F26400C2F200000021816171
:1019C0004FF07E51C161826941F21C71C2F2000187
:1019D0000A60C069486041F6C070C2F2000090ED34
:1019E000030A90ED041A30EE010A80ED030A90ED2F
:1019F000030A9FED281AB4EE410AF1EE10FA07DD52
:101A0000FFE741F6C071C2F200010020C86016E095
:101A100041F6C070C2F2000090ED030AB5EE400A34
:101A2000F1EE10FA0ADAFFE741F6C071C2F20001E6
:101A300040F6DB70C4F2C900C860FFE7FFE741F67B
:101A4000C070C2F2000090ED030A41F21C70C2F2B5
:101A5000000041F21471C2F20001019107F0E6F9B1
:101A600001990A6842F26400C2F20000026149680A
:101A7000416190ED040AD0ED050A40F2A420C2F2C3
:101A80000000B2EE081A09F09FF808F0B7FC02B0A7
:101A900080BD00BFDB0FC94081B0EFF3108072B68C
:101AA0000090FFE7FEE7000080B58AB041F61C70A9
:101AB000C2F2000003900021019107F025F803987D
:101AC0000421059107F020F803980821029107F0FE
:101AD0001BF803980C2107F017F80199039806F0FA
:101AE00047FA0599039806F043FA0299039806F01D
:101AF0003FFA0398016840F61650086441F6442006
:101B0000C2F2000000F09AFE642002F01FFD41F2D4
:101B10002C70C2F20000FFF797FC41F6C071C2F2D0
:101B2000000104914DF20A70C3F6A330086141F63A
:101B3000B470C2F2000007F01FFC0499059881F808
:101B4000240040F28410C2F2000090ED000A40F23E
:101B50007C10C2F20000D0ED000A40F20820C2F270
:101B600000009FED201A8DED081AF3EE041ACDED5A
:101B7000091A9FED1D2A8DED062AF0EE082ACDEDFB
:101B8000072A08F063FD9DED062ADDED072A9DED8D
:101B9000081ADDED091A40F28810C2F2000090ED3B
:101BA000000A40F28010C2F20000D0ED000A40F2BC
:101BB0002820C2F2000008F049FD9DED081ADDED75
:101BC000091A40F26820C2F200009FED080ADFED1A
:101BD000080A9FED082AF7EE002A08F037FD0AB040
:101BE00080BD00BF00000000ACC527380AD7A33B6A
:101BF0000000C842ACC5A73880B582B041F6C070BD
:101C0000C2F2000090F82400013801460191092831
:101C100021D80199DFE801F005080B0E1114171AFD
:101C20001D1EFFF7C5FE17E0FFF70AFE14E00DF0DA
:101C300007FE11E0FFF76EFC0EE00EF011F80BE06E
:101C40000EF0F2F808E00DF0AFFE05E00DF0A2FC9A
:101C500002E001E000E0FFE702B080BD80B584B0A3
:101C600047F29050C1F6FF700068039047F294501D
:101C7000C1F6FF700068029047F29850C1F6FF70FD
:101C8000006801900199039808440390039888B173
:101C9000FFE7039840F26011C2F2000100910231A7
:101CA000082207F087F8009902981231042207F001
:101CB00081F8FFE704B080BD81B0009001B07047AB
:101CC00080B5C6B02690259100208DF893001F9016
:101CD0001E902698406908B1FFE7FFE72598C06885
:101CE0000021C4F27F01884201D0FFE700E0FFE756
:101CF000FFE7269890F85800012805D1FFE7022059
:101D00008DF89F0000F03DBD2699012081F8580014
:101D1000FFE7FFE72698406928B1FFE72598006AAA
:101D200001282FD1FFE725984068092829D1FFE72E
:101D30002598806A68B1FFE725990A68886AC96AA8
:101D400002F0F84200F07C0040EA524008431E9046
:101D500006E02598006800F0F840400C1E90FFE770
:101D600026980068C06C44F20001C0F2104108409F
:101D70001E99084326990968C8641E9826994866E2
:101D8000FFE747E02698806EE0B9FFE72598006AF4
:101D9000269988662699002048662598806A58B159
:101DA000FFE72599086A8A6AC96A013802F07C024D
:101DB000104308431E9004E02598006A01381E90E5
:101DC000FFE7FFE7259908684968C0F3846001F0E0
:101DD0001F0100FA01F11E9808431E902699886E93
:101DE000013888661E9A2699486E104348662698E0
:101DF000806E70B9FFE726980068C06C44F200015D
:101E0000C0F210410840269A1168526E1043C8640F
:101E1000FFE7FFE72698006807F0CCF830BBFFE744
:101E2000259890F8250090B9FFE726980068C068CB
:101E300020F44010259991F8242091F826104905A6
:101E400041EA0251084326990968C8600DE02698C6
:101E50000068C06820F44010259991F8261040EAE7
:101E6000415026990968C860FFE7FFE72698006897
:101E700007F0EAF821902698006807F09BF8209078
:101E80002198002840F00982FFE72098002840F0C0
:101E90000482FFE72598806A20B1FFE72598C06A91
:101EA000A8B9FFE7259890F82500012807D1FFE79A
:101EB00026980168C86840F00070C86006E026985F
:101EC0000168C86820F00070C860FFE716E0259838
:101ED00090F82500012809D1FFE72699C86D40F048
:101EE0002000C86501208DF8930006E0269801685F
:101EF000C86820F00070C860FFE7FFE7259890F8F9
:101F00003000012810D1FFE726980068006920F40E
:101F1000FF71259A506B926B1043084340F002000A
:101F200026990968086106E026980168086920F08A
:101F300002000861FFE725988068B0F1004F0ED1DC
:101F4000FFE72698006825990968002207F0CAF87B
:101F5000269800684FF0004107F000FA0CE0269840
:101F60000068259A1168926807F0BCF82698006806
:101F7000002107F0F3F9FFE72598406926990968E1
:101F8000C96801F0180189088840239025980069E4
:101F900004281CD0FFE72698006825990A6809697B
:101FA000239B07F037F926980068259A11699269F2
:101FB00007F08AF926980068259A1169127F013A7C
:101FC000B2FA82F25209520607F056F964E12698F5
:101FD0000068002106F0CEFF400348B9FFE72698CD
:101FE0000068002106F0C6FFC0F384601D9018E071
:101FF00026980068002106F0BDFF90FAA0F0289016
:10200000289820B9FFE720208DF8A70005E0289840
:10201000B0FA80F08DF8A700FFE79DF8A7001D90AB
:10202000FFE71D981C9025980068400330B9FFE732
:1020300025980068C0F384601B9015E0259800681F
:1020400090FAA0F02A902A9820B9FFE720208DF876
:10205000AF0005E02A98B0FA80F08DF8AF00FFE7F6
:102060009DF8AF001B90FFE71C981B99884207D191
:10207000FFE7269800680022114607F04DF9FFE7B8
:1020800026980068012106F075FF400348B9FFE774
:1020900026980068012106F06DFFC0F384601A9055
:1020A00018E026980068012106F064FF90FAA0F07D
:1020B0002C902C9820B9FFE720208DF8B70005E080
:1020C0002C98B0FA80F08DF8B700FFE79DF8B700C4
:1020D0001A90FFE71A98199025980068400330B9C4
:1020E000FFE725980068C0F38460189015E02598F4
:1020F000006890FAA0F02E902E9820B9FFE72020DB
:102100008DF8BF0005E02E98B0FA80F08DF8BF0082
:10211000FFE79DF8BF001890FFE7199818998842CB
:1021200007D1FFE7269800680121002207F0F4F8A4
:10213000FFE726980068022106F01CFF400348B91B
:10214000FFE726980068022106F014FFC0F38460C0
:10215000179018E026980068022106F00BFF90FA0D
:10216000A0F03090309820B9FFE720208DF8C7000C
:1021700005E03098B0FA80F08DF8C700FFE79DF8D1
:10218000C7001790FFE7179816902598006840033E
:1021900030B9FFE725980068C0F38460159015E01A
:1021A0002598006890FAA0F03290329820B9FFE7A5
:1021B00020208DF8CF0005E03298B0FA80F08DF83D
:1021C000CF00FFE79DF8CF001590FFE7169815990F
:1021D000884207D1FFE7269800680221002207F015
:1021E0009BF8FFE726980068032106F0C3FE400332
:1021F00048B9FFE726980068032106F0BBFEC0F34C
:102200008460149018E026980068032106F0B2FE5E
:1022100090FAA0F04290429820B9FFE720208DF874
:102220000F0105E04298B0FA80F08DF80F01FFE74A
:102230009DF80F011490FFE71498139025980068FB
:10224000400330B9FFE725980068C0F3846012901E
:1022500015E02598006890FAA0F04490449820B9C1
:10226000FFE720208DF8170105E04498B0FA80F0D0
:102270008DF81701FFE79DF817011290FFE71398FB
:102280001299884207D1FFE72698006803210022AF
:1022900007F042F8FFE7FFE7FFE72698006806F03F
:1022A000BBFE002840F04481FFE726980068259A8D
:1022B0001168D26806F04CFF2598C0680021C4F26E
:1022C0007F01884240F03381FFE726980068119033
:1022D00025980068400330B9FFE725980068C0F3EF
:1022E0008460109015E02598006890FAA0F0409066
:1022F000409820B9FFE720208DF8070105E04098BD
:10230000B0FA80F08DF80701FFE79DF80701109003
:10231000FFE71098013000F01F0009287DD8FFE783
:1023200025980068400330B9FFE725980068C0F39E
:1023300084600F9015E02598006890FAA0F03E9018
:102340003E9820B9FFE720208DF8FF0005E03E9879
:10235000B0FA80F08DF8FF00FFE79DF8FF000F90C6
:10236000FFE70F98013000F01F0080060E902598BF
:102370000068400330B9FFE725980068C0F3846027
:102380000D9015E02598006890FAA0F03C903C98DC
:1023900020B9FFE720208DF8F70005E03C98B0FA5F
:1023A00080F08DF8F700FFE79DF8F7000D90FFE74C
:1023B0000E980D99013101F01F020121914008434F
:1023C0000C9025980068400330B9FFE72598006815
:1023D000C0F384600B9015E02598006890FAA0F097
:1023E0003A903A9820B9FFE720208DF8EF0005E0F9
:1023F0003A98B0FA80F08DF8EF00FFE79DF8EF0013
:102400000B90FFE70C980B99013101F01F0101EBD4
:10241000410140EA01500A9082E02598006840039B
:1024200030B9FFE725980068C0F38460099015E093
:102430002598006890FAA0F03890389820B9FFE706
:1024400020208DF8E70005E03898B0FA80F08DF88C
:10245000E700FFE79DF8E7000990FFE709980130E2
:1024600000F01F008006089025980068400330B9EE
:10247000FFE725980068C0F38460079015E0259871
:10248000006890FAA0F03690369820B9FFE7202037
:102490008DF8DF0005E03698B0FA80F08DF8DF00A7
:1024A000FFE79DF8DF000790FFE7089807990131E3
:1024B00001F01F0201219140084306902598006811
:1024C000400330B9FFE725980068C0F384600590A9
:1024D00015E02598006890FAA0F03490349820B95F
:1024E000FFE720208DF8D70005E03498B0FA80F09F
:1024F0008DF8D700FFE79DF8D7000590FFE7069914
:102500000598013000F01F0000EB40020020CFF6DC
:10251000206000EB0250084340F000700A90FFE793
:1025200011980A99259A926806F0DCFDFFE7FFE70B
:102530002598408848F20801084200F01781FFE71B
:10254000269801680120B1F1A04F04900CD0FFE75C
:10255000269800684FF60071CAF6FF710844B0FA79
:1025600080F040090490FFE70498C10740F2007032
:10257000C5F2000000291CBF40F20030C5F2000087
:1025800006F0C8FC22902598006840F20001CCF2C9
:102590002131884208D0FFE7259800681021C9F250
:1025A000C00188425AD1FFE79DF88A000006002842
:1025B00054D4FFE726980068B0F1A04F09D0FFE798
:1025C0002698006840F20061C5F20001884244D1BB
:1025D000FFE7269801680120B1F1A04F03900CD0CD
:1025E000FFE7269800684FF60071CAF6FF710844AD
:1025F000B0FA80F040090390FFE70398C10740F26A
:102600000070C5F2000000291CBF40F20030C5F286
:102610000000229941F4000106F0D0FD40F22000B4
:10262000C2F2000000684FEA901042F66351C0F217
:102630003E51A0FB01104FEA901000EB40014FF01B
:10264000180000EB81001F90FFE71F9820B1FFE703
:102650001F9801381F90F8E7FFE786E0259800688B
:102660000021CCF2527188423ED1FFE79DF88B00E9
:10267000C007C8BBFFE72698006840F20011C5F20A
:102680000001884209D1FFE72698006840F2005116
:10269000C5F20001884226D0FFE726980168012094
:1026A000B1F1A04F02900CD0FFE7269800684FF6DA
:1026B0000071CAF6FF710844B0FA80F04009029038
:1026C000FFE70298C10740F20070C5F20000002940
:1026D0001CBF40F20030C5F20000229941F0807129
:1026E00006F06CFDFFE73FE0259800680021CCF67E
:1026F0008431884236D1FFE79DF88A0040060028E1
:1027000030D4FFE72698006840F20011C5F20001BE
:10271000884226D0FFE7269801680120B1F1A04F3A
:1027200001900CD0FFE7269800684FF60071CAF6BA
:10273000FF710844B0FA80F040090190FFE701986A
:10274000C10740F20070C5F2000000291CBF40F232
:102750000030C5F20000229941F4800106F02EFD00
:10276000FFE700E0FFE7FFE7FFE7FFE7FFE7269966
:10277000002081F85800FFE79DF893008DF89F0036
:10278000FFE79DF89F0046B080BD000080B584B093
:10279000039003980068B0F1A04F13D1FFE740F217
:1027A0000040C4F6000001904FF400610291012244
:1027B00002F0A2F8FFF720FA01980299002202F035
:1027C0009BF8FFE704B080BD84B0039002910298AB
:1027D0000090092824D0FFE7009840F20F118842AA
:1027E00018D0FFE7009840F2152188420CD0FFE78F
:1027F000009840F21B31884213D1FFE7039800682C
:10280000D0F88C00019012E003980068D0F888009E
:1028100001900CE003980068D0F88400019006E075
:10282000FFE703980068D0F880000190FFE7019867
:1028300004B0704781B0009001B0704780B58AB095
:102840000890089801680120B1F1A04F04900CD0C5
:10285000FFE7089800684FF60071CAF6FF71084458
:10286000B0FA80F040090490FFE70498C10740F2F5
:102870000070C5F2000000291CBF40F20030C5F214
:10288000000006F05FFB05900898006806F092FBD8
:1028900020B1FFE702208DF8270009E108980068C1
:1028A000C06800F00040069008980068C06C10F402
:1028B000C07F0CD1FFE7069848B9FFE70899C86DBB
:1028C00040F02000C86501208DF82700F0E0FFE708
:1028D000089890F85800012804D1FFE702208DF8ED
:1028E0002700E5E00899012081F85800FFE7FFE79D
:1028F0000898FEF743FC8DF81F009DF81F00002884
:1029000040F0CA80FFE70898C06DC005002806D5D2
:10291000FFE70899086E20F00800086603E00899B0
:1029200000200866FFE70898C06D40F4805042F22E
:10293000010188430899C8650898006840F20011B1
:10294000C5F20001884204D1FFE74FF0A040039098
:1029500015E00898006840F20051C5F20001884275
:1029600006D1FFE740F20040C5F20000029003E00C
:10297000089800680290FFE702980390FFE7039829
:1029800008990968884203D0FFE7059830B9FFE746
:102990000899C86D20F48010C865FFE708980168A1
:1029A00060200860FFE70899002081F85800FFE7E1
:1029B00008980068C0688002002807D5FFE70898DB
:1029C0000168486840F480604860FFE708988069C3
:1029D00008280DD1FFE708980168486820F020001A
:1029E000486008980168486840F0400048600CE082
:1029F00008980168486820F040004860089801681D
:102A0000486840F020004860FFE70898006840F2FE
:102A10000011C5F20001884204D1FFE74FF0A04049
:102A2000019015E00898006840F20051C5F20001DD
:102A3000884206D1FFE740F20040C5F20000009056
:102A400003E0089800680090FFE700980190FFE716
:102A500001980899096888420BD0FFE7059840B1B2
:102A6000FFE70598062804D0FFE7059807280CD152
:102A7000FFE70898006806F08DFA28B9FFE7089884
:102A8000006806F0ABFAFFE705E00899C86D40F46E
:102A90008010C865FFE706E0FFE70899002081F88D
:102AA0005800FFE7FFE79DF81F008DF82700FFE7BC
:102AB0009DF827000AB080BD81B0009001B070473A
:102AC00081B0009001B0704780B5AEB02C902B91D2
:102AD00000208DF8AB002B98006808B1FFE7FFE7F6
:102AE000FFE72C9890F85800012804D1FFE7022056
:102AF0008DF8B7005DE12C99012081F85800FFE7BF
:102B0000FFE70020259026902C980068B0F1A04F98
:102B100006D1FFE740F20010C5F200000E9015E06C
:102B20002C98006840F20041C5F20001884207D1AC
:102B3000FFE740F20050C5F200000E900C9003E059
:102B400000200E900C90FFE70C98FFE70E9878B9E4
:102B5000FFE72C99C86D40F02000C865FFE72C996D
:102B6000002081F85800FFE701208DF8B70020E130
:102B70000E9806F069FA0D902C98006806F064FA39
:102B8000002840F00281FFE70D98002840F0FD800A
:102B9000FFE72C9801680120B1F1A04F0B900CD0F9
:102BA000FFE72C9800684FF60071CAF6FF710844E1
:102BB000B0FA80F040090B90FFE70B98C10740F294
:102BC0000070C5F2000000291CBF40F20030C5F2C1
:102BD000000029902B980068002872D0FFE7299800
:102BE000806820F460402B9949682C9A92F838202C
:102BF00041EA42310843299988602C9801680120F4
:102C0000B1F1A04F0A900CD0FFE72C9800684FF666
:102C10000071CAF6FF710844B0FA80F040090A90CA
:102C2000FFE70A98C10740F20070C5F200000029D2
:102C30001CBF40F20030C5F2000040F20031C5F286
:102C40000001884210D1FFE74FF0A04006F0E4F900
:102C5000089040F20010C5F2000006F0DDF90146D0
:102C60000898084309901BE040F20040C5F20000BC
:102C700006F0D2F9069040F20050C5F2000006F0CE
:102C8000CBF9014606980843079040F20060C5F270
:102C9000000006F0C1F90146079808430990FFE7D4
:102CA000099868B9FFE72998806840F61F71884342
:102CB0002B9A116892681143084329998860FFE7AD
:102CC00062E02999886820F4604088602C98016847
:102CD0000120B1F1A04F05900CD0FFE72C980068BF
:102CE0004FF60071CAF6FF710844B0FA80F040094F
:102CF0000590FFE70598C10740F20070C5F200009B
:102D000000291CBF40F20030C5F2000040F2003143
:102D1000C5F20001884210D1FFE74FF0A04006F055
:102D20007BF9039040F20010C5F2000006F074F940
:102D300001460398084304901BE040F20040C5F2AE
:102D4000000006F069F9019040F20050C5F2000061
:102D500006F062F9014601980843029040F20060D3
:102D6000C5F2000006F058F90146029808430490A5
:102D7000FFE7049838B9FFE72999886840F61F7281
:102D800090438860FFE7FFE708E02C99C86D40F0AA
:102D90002000C86501208DF8AB00FFE7FFE72C9904
:102DA000002081F85800FFE79DF8AB008DF8B700D0
:102DB000FFE79DF8B7002EB080BD000080B5C4B01D
:102DC0002490239100208DF88B001F902398C068D9
:102DD0000021C4F27F01884201D0FFE700E0FFE755
:102DE000FFE7249890F85800012805D1FFE702205A
:102DF0008DF8970000F059BC2499012081F8580003
:102E0000FFE7FFE72498006806F016F9002840F075
:102E10003884FFE72498006823990A68496806F017
:102E200027F92498006806F007F91E902498006896
:102E300006F0B8F81D901E98002840F0B881FFE712
:102E40001D98002840F0B381FFE723988068B0F117
:102E5000004F0ED1FFE724980068239909680022EB
:102E600006F024F9249800684FF0004106F068FA53
:102E70000CE024980068239A1168926806F016F90D
:102E800024980068002106F05BFAFFE72398406968
:102E900024990968C96801F01801890888402190BF
:102EA0002398006904281CD0FFE724980068239920
:102EB0000A680969219B06F08FF924980068239A13
:102EC0001169926906F0ECF924980068239A116957
:102ED000127F013AB2FA82F25209520606F0B8F9AC
:102EE00064E124980068002106F034F8400348B9F2
:102EF000FFE724980068002106F02CF8C0F38460F6
:102F00001C9018E024980068002106F023F890FA3D
:102F1000A0F02690269820B9FFE720208DF89F008A
:102F200005E02698B0FA80F08DF89F00FFE79DF845
:102F30009F001C90FFE71C981B902398006840039B
:102F400030B9FFE723980068C0F384601A9015E059
:102F50002398006890FAA0F02890289820B9FFE7FD
:102F600020208DF8A70005E02898B0FA80F08DF8B1
:102F7000A700FFE79DF8A7001A90FFE71B981A9992
:102F8000884207D1FFE7249800680022114606F026
:102F9000AFF9FFE724980068012105F0DBFF40034B
:102FA00048B9FFE724980068012105F0D3FFC0F37A
:102FB0008460199018E024980068012105F0CAFF88
:102FC00090FAA0F02A902A9820B9FFE720208DF8E7
:102FD000AF0005E02A98B0FA80F08DF8AF00FFE767
:102FE0009DF8AF001990FFE7199818902398006892
:102FF000400330B9FFE723980068C0F3846017905E
:1030000015E02398006890FAA0F02C902C9820B935
:10301000FFE720208DF8B70005E02C98B0FA80F08B
:103020008DF8B700FFE79DF8B7001790FFE71898F5
:103030001799884207D1FFE72498006801210022F0
:1030400006F056F9FFE724980068022105F082FF98
:10305000400348B9FFE724980068022105F07AFF91
:10306000C0F38460169018E024980068022105F0EF
:1030700071FF90FAA0F02E902E9820B9FFE7202043
:103080008DF8BF0005E02E98B0FA80F08DF8BF00F3
:10309000FFE79DF8BF001690FFE71698159023985C
:1030A0000068400330B9FFE723980068C0F38460EC
:1030B000149015E02398006890FAA0F030903098B2
:1030C00020B9FFE720208DF8C70005E03098B0FA5E
:1030D00080F08DF8C700FFE79DF8C7001490FFE768
:1030E00015981499884207D1FFE7249800680221B7
:1030F000002206F0FDF8FFE724980068032105F0A0
:1031000029FF400348B9FFE724980068032105F030
:1031100021FFC0F38460139018E024980068032115
:1031200005F018FF90FAA0F04090409820B9FFE712
:1031300020208DF8070105E04098B0FA80F08DF866
:103140000701FFE79DF807011390FFE7139812901E
:1031500023980068400330B9FFE723980068C0F364
:103160008460119015E02398006890FAA0F04290D6
:10317000429820B9FFE720208DF80F0105E0429822
:10318000B0FA80F08DF80F01FFE79DF80F01119064
:10319000FFE712981199884207D1FFE72498006849
:1031A0000321002206F0A4F8FFE7FFE7FFE72498D9
:1031B000006805F029FF002840F04481FFE72498CB
:1031C0000068239A1168D26805F0A8FF2398C068A8
:1031D0000021C4F27F01884240F03381FFE7249848
:1031E0000068109023980068400330B9FFE72398E7
:1031F0000068C0F384600F9015E02398006890FA8F
:10320000A0F03E903E9820B9FFE720208DF8FF0007
:1032100005E03E98B0FA80F08DF8FF00FFE79DF8DA
:10322000FF000F90FFE70F98013000F01F00092802
:103230007DD8FFE723980068400330B9FFE7239863
:103240000068C0F384600E9015E02398006890FA3F
:10325000A0F03C903C9820B9FFE720208DF8F700C3
:1032600005E03C98B0FA80F08DF8F700FFE79DF894
:10327000F7000E90FFE70E98013000F01F00800667
:103280000D9023980068400330B9FFE72398006849
:10329000C0F384600C9015E02398006890FAA0F0C9
:1032A0003A903A9820B9FFE720208DF8EF0005E02A
:1032B0003A98B0FA80F08DF8EF00FFE79DF8EF0044
:1032C0000C90FFE70D980C99013101F01F020121CC
:1032D000914008430B9023980068400330B9FFE702
:1032E00023980068C0F384600A9015E02398006872
:1032F00090FAA0F03890389820B9FFE720208DF898
:10330000E70005E03898B0FA80F08DF8E700FFE7B5
:103310009DF8E7000A90FFE70B980A99013101F048
:103320001F0101EB410140EA0150099082E023981E
:103330000068400330B9FFE723980068C0F3846059
:10334000089015E02398006890FAA0F0369036981F
:1033500020B9FFE720208DF8DF0005E03698B0FAAD
:1033600080F08DF8DF00FFE79DF8DF000890FFE7B1
:103370000898013000F01F0080060790239800682D
:10338000400330B9FFE723980068C0F384600690DB
:1033900015E02398006890FAA0F03490349820B992
:1033A000FFE720208DF8D70005E03498B0FA80F0D0
:1033B0008DF8D700FFE79DF8D7000690FFE7079844
:1033C0000699013101F01F02012191400843059047
:1033D00023980068400330B9FFE723980068C0F3E2
:1033E0008460049015E02398006890FAA0F0329071
:1033F000329820B9FFE720208DF8CF0005E0329801
:10340000B0FA80F08DF8CF00FFE79DF8CF00049070
:10341000FFE705990498013000F01F0000EB40021F
:103420000020CFF6206000EB0250084340F000700F
:103430000990FFE710980999239A926805F036FEE3
:10344000FFE7FFE72398408848F20801084200F0B0
:103450001781FFE7249801680120B1F1A04F039084
:103460000CD0FFE7249800684FF60071CAF6FF7190
:103470000844B0FA80F040090390FFE70398C107C1
:1034800040F20070C5F2000000291CBF40F200307D
:10349000C5F2000005F036FD20902398006840F248
:1034A0000001CCF22131884208D0FFE72398006860
:1034B0001021C9F2C00188425AD1FFE79DF882006D
:1034C0000006002854D4FFE724980068B0F1A04F0C
:1034D00009D0FFE72498006840F20061C5F20001BE
:1034E000884244D1FFE7249801680120B1F1A04F40
:1034F00002900CD0FFE7249800684FF60071CAF6DE
:10350000FF710844B0FA80F040090290FFE702988A
:10351000C10740F20070C5F2000000291CBF40F254
:103520000030C5F20000209941F4000105F038FE9A
:1035300040F22000C2F2000000684FEA901042F60C
:103540006351C0F23E51A0FB01104FEA901000EB16
:1035500040014FF00C0000EB81001F90FFE71F9827
:1035600020B1FFE71F9801381F90F8E7FFE786E0DA
:10357000239800680021CCF2527188423ED1FFE7C7
:103580009DF88300C007C8BBFFE72498006840F29D
:103590000011C5F20001884209D1FFE724980068B4
:1035A00040F20051C5F20001884226D0FFE724987E
:1035B00001680120B1F1A04F01900CD0FFE72498E1
:1035C00000684FF60071CAF6FF710844B0FA80F047
:1035D00040090190FFE70198C10740F20070C5F271
:1035E000000000291CBF40F20030C5F20000209905
:1035F00041F0807105F0D4FDFFE73FE023980068BB
:103600000021CCF68431884236D1FFE79DF8820054
:103610004006002830D4FFE72498006840F20011EB
:10362000C5F20001884226D0FFE7249801680120F6
:10363000B1F1A04F00900CD0FFE7249800684FF63E
:103640000071CAF6FF710844B0FA80F0400900909A
:10365000FFE70098C10740F20070C5F200000029A2
:103660001CBF40F20030C5F20000209941F48001F7
:1036700005F096FDFFE700E0FFE7FFE7FFE7FFE764
:1036800008E02499C86D40F02000C86501208DF83D
:103690008B00FFE7FFE72499002081F85800FFE73F
:1036A0009DF88B008DF89700FFE79DF8970044B0D8
:1036B00080BD000081B0009001B0704781B00090E3
:1036C00001B0704780B594B0139000201290139809
:1036D0000068006811901398006840681090139873
:1036E00001680120B1F1A04F0A900CD0FFE71398B8
:1036F00000684FF60071CAF6FF710844B0FA80F016
:1037000040090A90FFE70A98C10740F20070C5F22D
:10371000000000291CBF40F20030C5F2000005F097
:1037200009FC0B909DF844004FEA807000281AD5E0
:10373000FFE79DF840008007002814D5FFE71398A5
:10374000C06DC006002806D4FFE71399C86D40F489
:103750000060C865FFE71398FEF7AEFA139801689A
:1037600002200860FFE79DF844004007002806D5C6
:10377000FFE7109800F0040004280ED0FFE79DF842
:1037800044000007002840F1C080FFE79DF840009A
:103790000007002840F1B980FFE71398C06DC0060C
:1037A000002806D4FFE71399C86D40F40070C8657F
:1037B000FFE71398006805F04FFC002800F09D809B
:1037C000FFE71398006840F20011C5F2000188423B
:1037D00004D1FFE74FF0A040099015E0139800686E
:1037E00040F20051C5F20001884206D1FFE740F2E5
:1037F0000040C5F20000089003E0139800680890AC
:10380000FFE708980990FFE709981399096888422B
:103810000BD0FFE70B9840B1FFE70B98052804D0C9
:10382000FFE70B98092805D1FFE713980068C068E7
:103830000D9028E01398006840F20011C5F20001D5
:10384000884204D1FFE74FF0A040079015E013989D
:10385000006840F20051C5F20001884206D1FFE73E
:1038600040F20040C5F20000069003E013980068A3
:103870000690FFE706980790FFE707980C900C98D2
:10388000C0680D90FFE70D9800F40050B0F5005FA0
:1038900032D0FFE7139800680068000700282AD597
:1038A000FFE71398006805F0C7FBC0B9FFE713985E
:1038B0000168486820F00C0048601399C86D20F436
:1038C0008070C8651398C06DC004002806D4FFE757
:1038D0001399C86D40F00100C865FFE70AE013992D
:1038E000C86D40F01000C8651399086E40F00100E3
:1038F0000866FFE7FFE7FFE7FFE71398FFF7DAFE49
:10390000139801680C200860FFE79DF844008006CA
:10391000002806D5FFE7109800F0200020280ED0E0
:10392000FFE79DF844004006002840F1D680FFE7FD
:103930009DF840004006002840F1CF80FFE7139833
:10394000C06DC006002806D4FFE71399C86D40F487
:103950000050C865FFE71398006805F033FB0F902F
:103960001398006805F078FB0E901398006840F2F9
:103970000011C5F20001884204D1FFE74FF0A040DA
:10398000059015E01398006840F20051C5F200015F
:10399000884206D1FFE740F20040C5F200000490E3
:1039A00003E0139800680490FFE704980590FFE790
:1039B00005981399096888420BD0FFE70B9840B12E
:1039C000FFE70B98062804D0FFE70B98072805D1DE
:1039D000FFE713980068C0680D9028E0139800680E
:1039E00040F20011C5F20001884204D1FFE74FF018
:1039F000A040039015E01398006840F20051C5F212
:103A00000001884206D1FFE740F20040C5F2000005
:103A1000029003E0139800680290FFE70298039079
:103A2000FFE703980C900C98C0680D90FFE70F9883
:103A300000284AD0FFE79DF83700800700280AD504
:103A4000FFE70E9800283FD0FFE79DF8350080067D
:103A5000002839D4FFE71398006800684006002862
:103A600031D5FFE79DF83600800600282AD4FFE70D
:103A70001398006805F096FAC0B9FFE7139801683B
:103A8000486820F0600048601399C86D20F48050A9
:103A9000C8651398C06DC005002806D4FFE71399C8
:103AA000C86D40F00100C865FFE70AE01399C86DD2
:103AB00040F01000C8651399086E40F001000866D8
:103AC000FFE7FFE7FFE7FFE7FFE71398FEF75EFE7C
:103AD0001398016860200860FFE79DF84400000625
:103AE000002813D5FFE79DF84000000600280DD5FB
:103AF000FFE71399C86D40F48030C865139800F053
:103B0000A9FA1398016880200860FFE79DF8450036
:103B1000C00798B1FFE79DF84100C00770B1FFE70B
:103B20001399C86D40F40030C8651398FEF7C4FFC0
:103B3000139801684FF480700860FFE79DF8450016
:103B40008007002814D5FFE79DF841008007002872
:103B50000ED5FFE71399C86D40F48020C86513980F
:103B6000FEF7AEFF139801684FF400700860FFE79E
:103B70009DF84400C00600285AD5FFE79DF8400094
:103B8000C006002854D5FFE71398C06B18B9FFE7AB
:103B90000120129035E00B9840B3FFE713980168BD
:103BA0000120B1F1A04F01900CD0FFE713980068FD
:103BB0004FF60071CAF6FF710844B0FA80F0400970
:103BC0000190FFE70198C10740F20070C5F20000C4
:103BD00000291CBF40F20030C5F2000005F0A2F938
:103BE00018B1FFE701201290FFE709E01398006881
:103BF000C068C00718B1FFE701201290FFE7FFE798
:103C0000FFE7129801280ED1FFE71399C86D40F421
:103C10008060C8651399086E40F00200086613982A
:103C2000FFF74CFDFFE71398016810200860FFE7DD
:103C30009DF845004007002819D5FFE79DF8410091
:103C40004007002813D5FFE71399C86D40F4804062
:103C5000C8651399086E40F008000866139801685B
:103C60004FF4806008601398FEF7E4FDFFE714B09E
:103C700080BD000080B58EB00C9000208DF82F0024
:103C800007900C9820B9FFE701208DF83700DCE1A0
:103C90000C98406940B1FFE70C9890F82400012887
:103CA00001D1FFE7FFE7FFE70C98C06D50B9FFE7D0
:103CB0000C9800F0D3F90C99002008660C9981F853
:103CC0005800FFE70C98006805F096F928B1FFE767
:103CD0000C98006805F0ECF8FFE70C98006805F018
:103CE000A3F9F0B9FFE70C98006805F0FBF840F283
:103CF0002000C2F200000068800942F66351C0F261
:103D00003E51A0FB01108109022000EB4100079009
:103D1000FFE7079820B1FFE7079801380790F8E719
:103D2000FFE70C98006805F07FF970B9FFE70C9980
:103D3000C86D40F01000C8650C99086E40F0010095
:103D4000086601208DF82F00FFE70C98006805F049
:103D500073F909900C98C06DC006002800F16781C6
:103D6000FFE70998002840F06281FFE70C98C06DDA
:103D700040F0020020F480700C99C8650C9800682F
:103D800005F042F900287CD1FFE70C98016801207A
:103D9000B1F1A04F06900CD0FFE70C9800684FF6E9
:103DA0000071CAF6FF710844B0FA80F0400906902D
:103DB000FFE70698C10740F20070C5F20000002935
:103DC0001CBF40F20030C5F2000040F20031C5F2E5
:103DD0000001884210D1FFE74FF0A04005F014F930
:103DE000049040F20010C5F2000005F00DF9014604
:103DF0000498084305901BE040F20040C5F2000023
:103E000005F002F9029040F20050C5F2000005F002
:103E1000FBF8014602980843039040F20060C5F2A7
:103E2000000005F0F1F80146039808430590FFE70C
:103E3000059828BBFFE70C9801680120B1F1A04F5D
:103E400001900CD0FFE70C9800684FF60071CAF69D
:103E5000FF710844B0FA80F040090190FFE7019833
:103E6000C10740F20070C5F2000000291CBF40F2FB
:103E70000030C5F200000C99496805F083F9FFE7AE
:103E8000FFE70C994A7FC86B40EA42308A68CB68EA
:103E90001843104391F8241040EA01400A900C980E
:103EA00090F8240001280BD1FFE70C98816A0020CC
:103EB000CFF6FE7000EB41410A9808430A90FFE7F5
:103EC0000C98C06A50B1FFE70C99C86A096B00F4FE
:103ED000787001430A9808430A90FFE70C9800683D
:103EE000C06844F20701CFF6F07108400A99084310
:103EF0000C990968C8600C980068006920F040605F
:103F00000C9A1168526B104308610C98006805F018
:103F100049F808900998002868D1FFE70898002818
:103F200064D1FFE70C99087F91F83810800340EACC
:103F300041000A900C980068C06844F2020188436E
:103F40000A9908430C990968C8600C980069A0B1E7
:103F5000FFE70C980168086940F4803008610C980C
:103F60000068D0F8C00043F6FF7188430C9A1168CE
:103F700012691043C1F8C00011E00C98016808698B
:103F800020F4803008610C980068D0F8C00043F637
:103F9000FF7188430C990968C1F8C000FFE70C98CD
:103FA00090F84000012819D1FFE70C9800680069DB
:103FB00040F2FD7120EA01020C9B1968586CD3F89D
:103FC00048E0D3F84CC040EA0E0040EA0C001B6DFC
:103FD0001843104340F00100086106E00C980168A6
:103FE000086920F001000861FFE7FFE70C984069CD
:103FF00001280CD1FFE70C980068006B20F00F003F
:104000000C9A1168126A013A1043086306E00C9892
:104010000168086B20F00F000863FFE70C98C06D83
:1040200040F0010020F002000C99C86508E00C99EE
:10403000C86D40F01000C86501208DF82F00FFE723
:104040009DF82F008DF83700FFE79DF837000EB080
:1040500080BD000081B0009001B0704780B5A4B071
:10406000239000202290219020901F901E9009A85C
:104070005421FCF7C5F923980068B0F1A04F4ED148
:10408000FFE74FF4004009904FF000501A9009A844
:1040900001F0F6FF18B1FFE7FDF7FEFCFFE740F285
:1040A0008820C2F200000168013101600068012827
:1040B00010D1FFE7FFE741F24C00C4F202000168B3
:1040C00041F400510160006800F400500890089825
:1040D000FFE7FFE7FFE741F24C00C4F2020001688E
:1040E00041F001010160006800F0010007900798AD
:1040F000FFE70F201E9003201F90002003902090C8
:104100004FF090401EA900F043FA039A1220049049
:10411000114600F0A5FC049800F098FC59E02398A3
:10412000006840F20011C5F20001884250D1FFE75B
:104130004FF4004009904FF000501A9009A801F088
:104140009FFF18B1FFE7FDF7A7FCFFE740F28820CB
:10415000C2F200000168013101600068012810D13D
:10416000FFE7FFE741F24C00C4F20200016841F4AE
:1041700000510160006800F4005006900698FFE7C7
:10418000FFE7FFE741F24C00C4F20200016841F092
:1041900004010160006800F0040005900598FFE745
:1041A00007201E9003201F9000200190209040F6D1
:1041B0000000C4F600001EA900F0EAF9019A1220DE
:1041C0000290114600F04CFC029800F03FFCFFE723
:1041D000FFE724B080BD000080B582B001900020D0
:1041E0008DF80300019890F82500022811D0FFE710
:1041F00001990420C8630199012081F82500FFE797
:104200000199002081F82400FFE701208DF80300C8
:104210003FE001980168086820F00E0008600198EE
:104220000168086820F0010008600198816C086846
:1042300020F4807008600198016C406C00F01F024F
:104240000120904048600198C16C006D4860019861
:10425000406D58B1FFE70198416D086820F4807007
:1042600008600198816DC06D4860FFE701990120E9
:1042700081F82500FFE70199002081F82400FFE77D
:104280000198806B20B1FFE70198816B8847FFE7B9
:10429000FFE79DF8030002B080BD000080B584B048
:1042A00003900398006C006802900398006800680F
:1042B000019002980399496C01F01F01C840400722
:1042C000002825D5FFE79DF80400400700281FD5EA
:1042D000FFE70398006800688006002807D4FFE71E
:1042E00003980168086820F004000860FFE703985D
:1042F000016C406C00F01F0204209040486003985D
:10430000006B20B1FFE70398016B8847FFE76EE081
:1043100002980399496C01F01F01C84080070028EA
:104320002FD5FFE79DF804008007002829D5FFE777
:10433000039800680068800600280BD4FFE7039804
:104340000168086820F00A0008600399012081F8DC
:104350002500FFE70398016C406C00F01F0202206B
:1043600090404860FFE70399002081F82400FFE7B0
:104370000398C06A20B1FFE70398C16A8847FFE746
:1043800034E002980399496C01F01F01C84000070E
:10439000002829D5FFE79DF804000007002823D551
:1043A000FFE703980168086820F00E000860039892
:1043B000026C406C00F01F01012000FA01F1516015
:1043C0000399C863039981F82500FFE7039900204A
:1043D00081F82400FFE70398406B20B1FFE70398C2
:1043E000416B8847FFE700E0FFE7FFE7FFE704B026
:1043F00080BD000080B584B00290029820B9FFE72C
:1044000001208DF80F009CE00298006840F20741FF
:10441000C4F20201884218D8FFE7029908684FF6F3
:10442000F872CBF6FD7210444CF6CD42CCF6CC427D
:10443000A0FB02026FF0030000EA920048640299B8
:104440000020C4F20200086418E0029908684FF6E0
:10445000F832CBF6FD7210444CF6CD42CCF6CC428D
:10446000A0FB02026FF0030000EA92004864029988
:1044700040F20040C4F202000864FFE70299022003
:1044800081F825000298006800680190019847F6BD
:10449000F0718843019002998868D1F80CC00B69CB
:1044A0004A6940EA0C00184310438A691043CA69FC
:1044B0001043096A01430198084301900198029949
:1044C000096808600298FDF761F902988068B0F504
:1044D000804F04D1FFE7029900204860FFE702996E
:1044E0000879896C08600298C16C006D4860029878
:1044F000406888B1FFE70298406804280CD8FFE7BD
:104500000298FDF77DF90298416D0020086002983D
:10451000816DC06D486007E00299002048650299EE
:1045200088650299C865FFE702990020C863029A6E
:10453000012182F82510029981F824008DF80F00DE
:10454000FFE79DF80F0004B080BD000080B584B087
:10455000039000F0E7F90290039801900198013070
:1045600048B1FFE740F2A010C2F2000001680198D4
:1045700008440190FFE7FFE700F0D4F90299401AE0
:104580000199884201D2FFE7F6E704B080BD000040
:104590008BB00A90099100200890FFE70998006805
:1045A0000899C840002800F0A581FFE70998006835
:1045B000089A01219140084007900798002800F0D0
:1045C0009581FFE70998406800F00300012807D0B3
:1045D000FFE70998406800F0030002282FD1FFE7A9
:1045E0000A988068069008984100032000FA01F1BB
:1045F0000698884306900998C0680899490000FA0F
:1046000001F106980843069006980A9988600A986E
:10461000406806900899012000FA01F10698884345
:10462000069009984068C0F30010089900FA01F15B
:1046300006980843069006980A994860FFE709988B
:10464000406800F00300032818D0FFE70A98C0680C
:10465000069008984100032000FA01F1069888436B
:104660000690099880680899490000FA01F10698B7
:104670000843069006980A99C860FFE709984068C1
:1046800000F00300022826D1FFE70A9808996FF08E
:10469000030202EA51010844006A0690089800F0FB
:1046A000070081000F2000FA01F106988843069068
:1046B00009980069089901F00701890000FA01F1E1
:1046C00006980843069006980A99089B02EA530246
:1046D00011440862FFE70A980068069008984100B4
:1046E000032000FA01F10698884306900998406873
:1046F00000F003000899490000FA01F10698084308
:10470000069006980A990860099880798007002821
:1047100000F0EB80FFE7FFE741F26000C4F2020027
:10472000016841F001010160006800F0010005909E
:104730000598FFE7089820F003000821C4F2010162
:1047400040580690089800F0030081000F2000FAFE
:1047500001F10698884306900A98B0F1904F03D172
:10476000FFE70020049042E00A9840F20041C4F6BE
:104770000001884203D1FFE70120039034E00A984A
:1047800040F60001C4F60001884203D1FFE7022091
:10479000029026E00A9840F60041C4F600018842E3
:1047A00003D1FFE70320019018E00A9841F20001CD
:1047B000C4F60001884203D1FFE7042000900AE01C
:1047C0000A9941F20042C4F600020620914208BF55
:1047D00005200090FFE700980190FFE70198029004
:1047E000FFE702980390FFE703980490FFE704981F
:1047F000089901F00301890000FA01F106980843C5
:1048000006900698089921F003010822C4F20102DB
:10481000885040F20840C4F20100006806900799F1
:1048200006988843069009988079C006002805D527
:10483000FFE70799069808430690FFE7069840F2BD
:104840000841C4F20101086040F20C40C4F20100CA
:104850000068069007990698884306900998807921
:104860008006002805D5FFE70799069808430690BB
:10487000FFE7069840F20C41C4F20101086040F2E3
:104880000440C4F201000068069007990698884326
:104890000690099880798007002805D5FFE70799D9
:1048A000069808430690FFE7069840F20441C4F2D8
:1048B0000101086040F20040C4F201000068069067
:1048C000079906988843069009988079C00728B10F
:1048D000FFE70799069808430690FFE7069840F21D
:1048E0000041C4F201010860FFE7FFE708980130CA
:1048F000089053E60BB0704782B00190ADF80210FB
:104900008DF801209DF8010028B1FFE7BDF80200F5
:104910000199886104E0BDF8020001998862FFE70F
:1049200002B0704742F26000C2F2000000687047B7
:1049300040F2A010C2F20000026842F26001C2F22E
:1049400000010868104408607047000080B582B01C
:1049500000208DF80700032000F09AF80F2000F0E7
:104960000DF820B1FFE701208DF8070002E000F00C
:1049700049F8FFE79DF8070002B080BD80B582B01E
:10498000019000208DF8030040F2A010C2F2000058
:10499000006878B3FFE740F22000C2F20000006830
:1049A00040F2A011C2F200010A684FF47A71B1FB23
:1049B000F2F1B0FBF1F003F073F8B0B9FFE7019842
:1049C0000F280DD8FFE701994FF0FF30002200F0CB
:1049D00047F8019840F2A411C2F20001086003E018
:1049E00001208DF80300FFE703E001208DF80300AC
:1049F000FFE703E001208DF80300FFE79DF80300C7
:104A000002B080BD80B582B0FFE741F26000C4F221
:104A10000200016841F001010160006800F001003E
:104A200001900198FFE7FFE741F25800C4F202004D
:104A3000016841F080510160006800F080500090F2
:104A40000098FFE701F012FB02B080BD80B582B094
:104A50008DF807009DF907000AF046FF02B080BDFF
:104A600080B586B08DF81700049103920AF054FFC8
:104A700002909DF91700019002980499039A05F09D
:104A800007F9014601980AF04FFF06B080BD00000B
:104A900080B582B0019001980AF068FF02B080BD35
:104AA00082B0019001980068009001990120C1F83E
:104AB000D0020199002081F8C802009AB2F854107F
:104AC00041F00101A2F85410009AB2F8541041F0DC
:104AD0000201A2F8541002B07047000080B584B003
:104AE00003908DF80B109DF80B000146019120B149
:104AF000FFE70198012815D027E00398407A58B1C4
:104B0000FFE706F095FA4EF61051CEF20001086864
:104B100020F006000860FFE70398D0F8D80208F0FC
:104B200067FA12E00398D0F8D80208F047FB039820
:104B3000407A48B1FFE74EF61051CEF20001086806
:104B400040F006000860FFE7FFE704B080BD00000A
:104B500084B00390ADF80A10ADF808200193BDF8B9
:104B60000A00000600280CD5FFE70398BDF80A10DC
:104B700001F0070101EB810100EBC1001030009052
:104B80000AE00398BDF80A1001EB810100EBC100B7
:104B900000F5A8700090FFE7BDF8080038B9FFE7FE
:104BA00000990020087301980099C8800AE00099D4
:104BB00001200873019800990881BDF8060000994A
:104BC0004881FFE7002004B07047000080B582B044
:104BD00001908DF80310019AD2F8D8029DF80310C5
:104BE00001EB810302EBC302526A07F0B9FF02B086
:104BF00080BD000080B582B001908DF80310019A4D
:104C0000D2F8D8029DF8031001EB810302EBC30236
:104C1000D2F8642108F04AF802B080BD80B584B0B3
:104C200002908DF807109DF80700000600280FD5A8
:104C3000FFE702989DF8071001F0070101EB8101E1
:104C400000EBC100103000900099012048700FE087
:104C500002989DF8071001F0070101EB810100EBBC
:104C6000C10000F5A8700090009900204870FFE78F
:104C70009DF8070000F0070000990870FFE7029810
:104C800090F89002012804D1FFE702208DF80F0070
:104C900014E00299012081F89002FFE7FFE70298F3
:104CA0000068009909F0EEF9FFE70299002081F809
:104CB0009002FFE700208DF80F00FFE79DF80F003E
:104CC00004B080BD80B584B002908DF807109DF8C7
:104CD000070000F00F0002990979884204D9FFE724
:104CE00001208DF80F004DE09DF807000006002818
:104CF0000FD5FFE702989DF8071001F0070101EBBF
:104D0000810100EBC1001030009000990120487033
:104D10000FE002989DF8071001F0070101EB8101F7
:104D200000EBC10000F5A8700090009900204870C9
:104D3000FFE70099002088709DF8070000F0070049
:104D400000990870FFE7029890F89002012804D1BA
:104D5000FFE702208DF80F0014E00299012081F88E
:104D60009002FFE7FFE702980068009909F06AFBEC
:104D7000FFE70299002081F89002FFE700208DF8FC
:104D80000F00FFE79DF80F0004B080BD80B586B02E
:104D900005900491ADF80E20BDF80E0040040028E7
:104DA00076D5FFE705980068B0F8500004990978B7
:104DB00000EBC100059909680844B0F802046FF3DC
:104DC0009F20ADF80C0004988069BDF80C10884253
:104DD00007D3FFE7BDF80C2004998869801A886121
:104DE00003E0049900208861FFE704988069F8B91E
:104DF000FFE7FFE7059800680499097830F821007B
:104E00004BF68F710840ADF80A00BDF80A0080F437
:104E10000050ADF80A00BDF80A0048F280010843CE
:104E200005990968049A127821F82200FFE7FFE744
:104E3000BDF80E00400600281BD5FFE7FFE7FFE79F
:104E4000059800680499097830F8210048F68F71B8
:104E50000840ADF80800BDF8080048F2C00108435A
:104E600005990968049A127821F82200FFE7FFE704
:104E7000FFE7BDF80C0050B1FFE705980068049A01
:104E800051691289BDF80C300AF0F2FAFFE775E0BB
:104E900005980068B0F850000499097800EBC1004B
:104EA000059909680844B0F806046FF39F20ADF82F
:104EB0000C0004988069BDF80C10884207D3FFE706
:104EC000BDF80C2004998869801A886103E0049970
:104ED00000208861FFE704988069F8B9FFE7FFE7E1
:104EE000059800680499097830F821004BF68F7115
:104EF0000840ADF80600BDF8060080F40050ADF89B
:104F00000600BDF8060048F28001084305990968CB
:104F1000049A127821F82200FFE7FFE7BDF80E009F
:104F2000400600281BD4FFE7FFE7FFE7059800686D
:104F30000499097830F8210048F68F710840ADF8DF
:104F40000400BDF8040048F2C0010843059909684F
:104F5000049A127821F82200FFE7FFE7FFE7BDF887
:104F60000C0050B1FFE705980068049A5169528916
:104F7000BDF80C300AF07CFAFFE7FFE7BDF80C0043
:104F800006B080BD80B5A6B025902491ADF88E20E6
:104F9000BDF88E004006002840F1BA81FFE7259851
:104FA0000068B0F850002499097800EBC1002599F9
:104FB00009680844B0F802046FF39F20ADF886003A
:104FC00024988069BDF88610884207D9FFE7BDF8AC
:104FD000862024998869801A886103E0249900203A
:104FE0008861FFE724988069002840F0B080FFE7DF
:104FF000FFE72498407808BBFFE7FFE725980068A3
:10500000209025980068B0F850102098084420900F
:1050100020982499097800EBC10000F202401F900B
:10502000FFE71F9908886FF39F2008801F99088861
:1050300040F400400880FFE7FFE71DE02498407837
:10504000012818D1FFE7FFE7259800681D902598F3
:105050000068B0F850101D9808441D901D982499C0
:10506000097800EBC10000F202401C901C9900205E
:105070000880FFE7FFE7FFE7FFE7FFE72598006805
:105080001B902498407808BBFFE7FFE7259800684D
:10509000199025980068B0F8501019980844199094
:1050A00019982499097800EBC10000F20640189085
:1050B000FFE7189908886FF39F20088018990888DF
:1050C00040F400400880FFE7FFE718E024984078AC
:1050D000012813D1FFE725980068B0F850101B98FD
:1050E00008441B901B982499097800EBC10000F23A
:1050F00006401A901A9900200880FFE7FFE7FFE7B3
:10510000259824990978FFF761FDBDF88E004004C9
:1051100000281BD5FFE7FFE7FFE7259800682499E3
:10512000097830F8210048F68F710840ADF85A0030
:10513000BDF85A004CF28001084325990968249A69
:10514000127821F82200FFE7FFE7FFE7DFE0BDF874
:105150008E00400400281BD5FFE7FFE7FFE72598F6
:1051600000682499097830F8210048F68F710840CA
:10517000ADF85800BDF858004CF28001084325995D
:105180000968249A127821F82200FFE7FFE7FFE779
:10519000249890F82400012840F0B880FFE7BDF87B
:1051A00086202499486910444861BDF886202499D6
:1051B000C8691044C86124980169006A884209D30B
:1051C000FFE7249800692290229A2499086A801A9D
:1051D000086216E02498006A40B9FFE7BDF886002F
:1051E00022902499002081F8240009E024990020CD
:1051F00081F824002499096A229124990862FFE722
:10520000FFE7FFE724984078002856D1FFE7FFE743
:1052100025980068159025980068B0F850101598EA
:105220000844159015982499097800EBC10000F204
:1052300002401490FFE7149908886FF39F200880BC
:1052400022983F2817D3FFE7FFE7229840091390E1
:105250009DF88800C00620B9FFE713980138139025
:10526000FFE7139A1499088840EA822040F400402E
:105270000880FFE71EE0229830B9FFE714990888FC
:1052800040F40040088014E0FFE7229840081390A3
:105290009DF88800C00720B1FFE7139801301390F4
:1052A000FFE7139A1499088840EA82200880FFE7F4
:1052B000FFE7FFE7FFE7FFE71DE0249840780128BC
:1052C00018D1FFE7FFE7259800681290259800683D
:1052D000B0F8501012980844129012982499097846
:1052E00000EBC10000F20240119022981199088051
:1052F000FFE7FFE7FFE7FFE725980068249A516979
:105300001289BDF888300AF005F9FFE7FFE7B6E13A
:1053100025980068B0F850002499097800EBC10086
:10532000259909680844B0F806046FF39F20ADF88A
:10533000860024988069BDF88610884207D3FFE76D
:10534000BDF8862024998869801A886103E0249931
:1053500000208861FFE724988069002840F0B08031
:10536000FFE7FFE72498407808BBFFE7FFE72598B1
:105370000068109025980068B0F850101098084404
:10538000109010982499097800EBC10000F20240B7
:105390000F90FFE70F9908886FF39F2008800F99FF
:1053A000088840F400400880FFE7FFE71DE02498EC
:1053B0004078012818D1FFE7FFE7259800680D9095
:1053C00025980068B0F850100D9808440D900D987D
:1053D0002499097800EBC10000F202400C900C996E
:1053E00000200880FFE7FFE7FFE7FFE7FFE72598DA
:1053F00000680B902498407808BBFFE7FFE72598EA
:105400000068099025980068B0F850100998084481
:10541000099009982499097800EBC10000F2064030
:105420000890FFE7089908886FF39F200880089983
:10543000088840F400400880FFE7FFE718E0249860
:105440004078012813D1FFE725980068B0F8501084
:105450000B9808440B900B982499097800EBC10035
:1054600000F206400A900A9900200880FFE7FFE753
:10547000FFE7259824990978FFF7A8FBBDF88E006F
:10548000400400281BD4FFE7FFE7FFE725980068EA
:105490002499097830F8210048F68F710840ADF85A
:1054A0001A00BDF81A004CF28001084325990968DA
:1054B000249A127821F82200FFE7FFE7FFE7DDE0FA
:1054C000BDF88E00400400281BD4FFE7FFE7FFE78C
:1054D000259800682499097830F8210048F68F71E2
:1054E0000840ADF81800BDF818004CF280010843E0
:1054F00025990968249A127821F82200FFE7FFE72E
:10550000FFE7249890F82400012840F0B680FFE7D8
:10551000BDF886202499486910444861BDF886206A
:105520002499C8691044C86124980169006A8842B6
:1055300009D3FFE7249800692290229A2499086AE7
:10554000801A086216E02498006A40B9FFE7BDF8A7
:10555000860022902499002081F8240009E02498F4
:10556000006A2290249900200862249981F824007E
:10557000FFE7FFE7FFE7259800680590249840784B
:10558000002856D1FFE7FFE725980068039025988B
:105590000068B0F8501003980844039003982499C9
:1055A000097800EBC10000F206400290FFE7029983
:1055B00008886FF39F20088022983F2817D3FFE7C1
:1055C000FFE72298400901909DF88800C00620B9A5
:1055D000FFE7019801380190FFE7019A02990888D6
:1055E00040EA822040F400400880FFE71EE0229855
:1055F00030B9FFE70299088840F40040088014E0C1
:10560000FFE72298400801909DF88800C00720B16C
:10561000FFE7019801300190FFE7019A029908889D
:1056200040EA82200880FFE7FFE7FFE7FFE7FFE7A8
:1056300018E024984078012813D1FFE725980068E6
:10564000B0F85010059808440590059824990978F9
:1056500000EBC10000F206400490229804990880F3
:10566000FFE7FFE7FFE725980068249A5169528910
:10567000BDF8883009F04EFFFFE7FFE7FFE7FFE7DF
:10568000259800682499097830F8210048F6BF7100
:105690000840ADF80200BDF8020080F01000ADF83F
:1056A0000200BDF8020080F02000ADF80200BDF855
:1056B000020048F28001084325990968249A12786B
:1056C00021F82200FFE7002026B080BD82B00190C3
:1056D0008DF8031001989DF8031001F0070101EB0C
:1056E000810100EBC100D0F86C0102B070470000EE
:1056F00080B586B004908DF80F10ADF80C208DF8B1
:105700000B3000208DF80A009DF80F0000060028DD
:105710000FD5FFE704989DF80F1001F0070101EB8A
:10572000810100EBC1001030019001990120487007
:105730000FE004989DF80F1001F0070101EB8101C3
:1057400000EBC10000F5A87001900199002048709D
:10575000FFE79DF80F0000F0070001990870BDF801
:105760000C00019908619DF80B000199C8709DF823
:105770000B00022804D1FFE7019900200871FFE720
:10578000FFE7049890F89002012804D1FFE7022077
:105790008DF8170015E00499012081F89002FFE7C9
:1057A000FFE704980068019908F020F9FFE70499E1
:1057B000002081F89002FFE79DF80A008DF817009D
:1057C000FFE79DF8170006B080BD000080B586B0E9
:1057D00005908DF813100392029305989DF813100D
:1057E00001F0070101EB810100EBC10000F5A87099
:1057F0000190039801994861029801998861019983
:1058000000200090C861019948709DF8130000F0D5
:1058100007000199087005980068019908F0FAFEE0
:10582000009806B080BD000080B584B002908DF86D
:1058300007109DF8070000F00700029909798842D7
:1058400004D9FFE701208DF80F004BE09DF8070019
:10585000000600280FD5FFE702989DF8071001F019
:10586000070101EB810100EBC100103000900099AD
:10587000012048700DE002989DF8071001EB8101AE
:1058800000EBC10000F5A87000900099002048705E
:10589000FFE70099012088709DF8070000F00700DD
:1058A00000990870FFE7029890F89002012804D14F
:1058B000FFE702208DF80F0014E00299012081F823
:1058C0009002FFE7FFE702980068009908F05EFE8B
:1058D000FFE70299002081F89002FFE700208DF891
:1058E0000F00FFE79DF80F0004B080BD80B586B0C3
:1058F00005908DF813100392029305989DF81310EC
:1059000001F0070101EB810100EBC10010300190B3
:1059100003980199486102980199886101990120D1
:1059200081F824000299019A1162019A00210091E4
:10593000D161019948709DF8130000F007000199AA
:10594000087005980068019908F064FE009806B098
:1059500080BD000080B582B001900198006809F018
:105960007DFD00909DF801000006002804D5FFE7AA
:10597000019804F0C3F9DFE09DF80100400700281A
:1059800010D5FFE701980168B1F8440020F4806069
:10599000A1F84400019800F0D3F90198002100F02B
:1059A0000FFAC9E09DF801004006002809D5FFE77D
:1059B00001980168B1F8440020F48040A1F8440047
:1059C000BAE09DF801008006002809D5FFE701989C
:1059D0000168B1F8440020F40050A1F84400ABE0A5
:1059E0009DF80100C00600282AD5FFE7019801684C
:1059F000B1F8400020F00400A1F8400001980168CF
:105A0000B1F8400020F00800A1F84000019890F89B
:105A1000C802012808D1FFE70198002180F8C812C8
:105A20000198FFF75BF8FFE7019800F0A5F90198EE
:105A30000168B1F8440020F48050A1F844007BE0F4
:105A40009DF80100000700281CD5FFE701980168B8
:105A5000B1F8400040F00800A1F84000019801684A
:105A6000B1F8440020F40060A1F8440001980168F6
:105A7000B1F8400040F00400A1F84000019800F0A7
:105A800003FA59E09DF800000006002834D5FFE72E
:105A900001980168B1F8440020F08000A1F84400AA
:105AA000019890F8C80210BBFFE701980168B1F8AF
:105AB000400040F00400A1F8400001980168B1F8EE
:105AC000400040F00800A1F840000198012180F852
:105AD000C81201980068B0F8540000F0F000800887
